{
	"SimpleStorage.sol": {
		"SimpleStorage": {
			"abi": [
				{
					"inputs": [
						{
							"internalType": "address",
							"name": "myAddress",
							"type": "address"
						}
					],
					"name": "MyBlance",
					"outputs": [
						{
							"internalType": "uint256",
							"name": "amount",
							"type": "uint256"
						}
					],
					"stateMutability": "view",
					"type": "function"
				},
				{
					"inputs": [
						{
							"internalType": "uint16",
							"name": "newNumber",
							"type": "uint16"
						}
					],
					"name": "addNewHobbieNumber",
					"outputs": [],
					"stateMutability": "nonpayable",
					"type": "function"
				},
				{
					"inputs": [
						{
							"internalType": "string",
							"name": "p_name",
							"type": "string"
						},
						{
							"internalType": "uint256",
							"name": "p_age",
							"type": "uint256"
						}
					],
					"name": "addNewPerson",
					"outputs": [],
					"stateMutability": "nonpayable",
					"type": "function"
				},
				{
					"inputs": [
						{
							"internalType": "int16",
							"name": "mon",
							"type": "int16"
						}
					],
					"name": "doubleMoney",
					"outputs": [
						{
							"internalType": "int16",
							"name": "",
							"type": "int16"
						}
					],
					"stateMutability": "pure",
					"type": "function"
				},
				{
					"inputs": [],
					"name": "getMoney",
					"outputs": [
						{
							"internalType": "int16",
							"name": "",
							"type": "int16"
						}
					],
					"stateMutability": "view",
					"type": "function"
				},
				{
					"inputs": [
						{
							"internalType": "uint256",
							"name": "",
							"type": "uint256"
						}
					],
					"name": "hobbieNumbers",
					"outputs": [
						{
							"internalType": "uint16",
							"name": "",
							"type": "uint16"
						}
					],
					"stateMutability": "view",
					"type": "function"
				},
				{
					"inputs": [
						{
							"internalType": "uint256",
							"name": "",
							"type": "uint256"
						}
					],
					"name": "personOnMyFamily",
					"outputs": [
						{
							"internalType": "string",
							"name": "name",
							"type": "string"
						},
						{
							"internalType": "uint256",
							"name": "age",
							"type": "uint256"
						}
					],
					"stateMutability": "view",
					"type": "function"
				},
				{
					"inputs": [
						{
							"internalType": "int16",
							"name": "newMoney",
							"type": "int16"
						}
					],
					"name": "setMoney",
					"outputs": [],
					"stateMutability": "nonpayable",
					"type": "function"
				},
				{
					"inputs": [
						{
							"internalType": "address",
							"name": "m_Address",
							"type": "address"
						},
						{
							"internalType": "uint256",
							"name": "m_amount",
							"type": "uint256"
						}
					],
					"name": "setMyBalance",
					"outputs": [],
					"stateMutability": "nonpayable",
					"type": "function"
				}
			],
			"devdoc": {
				"kind": "dev",
				"methods": {},
				"version": 1
			},
			"evm": {
				"assembly": "    /* \"SimpleStorage.sol\":60:2694  contract SimpleStorage{... */\n  mstore(0x40, 0x80)\n    /* \"SimpleStorage.sol\":104:108  -500 */\n  0xfffffffffffffffffffffffffffffffffffffffffffffffffffffffffffffe0c\n    /* \"SimpleStorage.sol\":89:108  int16  money = -500 */\n  0x00\n  dup1\n  0x0100\n  exp\n  dup2\n  sload\n  dup2\n  0xffff\n  mul\n  not\n  and\n  swap1\n  dup4\n  0x01\n  signextend\n  0xffff\n  and\n  mul\n  or\n  swap1\n  sstore\n  pop\n    /* \"SimpleStorage.sol\":161:163  25 */\n  0x19\n    /* \"SimpleStorage.sol\":148:163  uint16 age = 25 */\n  0x00\n  exp(0x0100, 0x02)\n  dup2\n  sload\n  dup2\n  0xffff\n  mul\n  not\n  and\n  swap1\n  dup4\n  0xffff\n  and\n  mul\n  or\n  swap1\n  sstore\n  pop\n    /* \"SimpleStorage.sol\":236:240  true */\n  0x01\n    /* \"SimpleStorage.sol\":223:240  bool isPay = true */\n  0x00\n  exp(0x0100, 0x04)\n  dup2\n  sload\n  dup2\n  0xff\n  mul\n  not\n  and\n  swap1\n  dup4\n  iszero\n  iszero\n  mul\n  or\n  swap1\n  sstore\n  pop\n    /* \"SimpleStorage.sol\":270:291  string name = 'Giang' */\n  mload(0x40)\n  dup1\n  0x40\n  add\n  0x40\n  mstore\n  dup1\n  0x05\n  dup2\n  mstore\n  0x20\n  add\n  0x4769616e67000000000000000000000000000000000000000000000000000000\n  dup2\n  mstore\n  pop\n  0x01\n  swap1\n  dup2\n  tag_1\n  swap2\n  swap1\n  tag_2\n  jump\t// in\ntag_1:\n  pop\n    /* \"SimpleStorage.sol\":630:687  bytes32 hashPassword = \"a665a45920422f9d417e4867efdc4fb8\" */\n  sstore(0x03, 0x6136363561343539323034323266396434313765343836376566646334666238)\n    /* \"SimpleStorage.sol\":766:808  0x76C9a0eEfA918d802D406B35D6b76e057a89b004 */\n  0x76c9a0eefa918d802d406b35d6b76e057a89b004\n    /* \"SimpleStorage.sol\":747:808  address mywallet = 0x76C9a0eEfA918d802D406B35D6b76e057a89b004 */\n  0x04\n  exp(0x0100, 0x00)\n  dup2\n  sload\n  dup2\n  0xffffffffffffffffffffffffffffffffffffffff\n  mul\n  not\n  and\n  swap1\n  dup4\n  0xffffffffffffffffffffffffffffffffffffffff\n  and\n  mul\n  or\n  swap1\n  sstore\n  pop\n    /* \"SimpleStorage.sol\":60:2694  contract SimpleStorage{... */\n  callvalue\n  dup1\n  iszero\n  tag_3\n  jumpi\n  0x00\n  dup1\n  revert\ntag_3:\n  pop\n  jump(tag_4)\n    /* \"#utility.yul\":7:106   */\ntag_5:\n    /* \"#utility.yul\":59:65   */\n  0x00\n    /* \"#utility.yul\":93:98   */\n  dup2\n    /* \"#utility.yul\":87:99   */\n  mload\n    /* \"#utility.yul\":77:99   */\n  swap1\n  pop\n    /* \"#utility.yul\":7:106   */\n  swap2\n  swap1\n  pop\n  jump\t// out\n    /* \"#utility.yul\":112:292   */\ntag_6:\n    /* \"#utility.yul\":160:237   */\n  0x4e487b7100000000000000000000000000000000000000000000000000000000\n    /* \"#utility.yul\":157:158   */\n  0x00\n    /* \"#utility.yul\":150:238   */\n  mstore\n    /* \"#utility.yul\":257:261   */\n  0x41\n    /* \"#utility.yul\":254:255   */\n  0x04\n    /* \"#utility.yul\":247:262   */\n  mstore\n    /* \"#utility.yul\":281:285   */\n  0x24\n    /* \"#utility.yul\":278:279   */\n  0x00\n    /* \"#utility.yul\":271:286   */\n  revert\n    /* \"#utility.yul\":298:478   */\ntag_7:\n    /* \"#utility.yul\":346:423   */\n  0x4e487b7100000000000000000000000000000000000000000000000000000000\n    /* \"#utility.yul\":343:344   */\n  0x00\n    /* \"#utility.yul\":336:424   */\n  mstore\n    /* \"#utility.yul\":443:447   */\n  0x22\n    /* \"#utility.yul\":440:441   */\n  0x04\n    /* \"#utility.yul\":433:448   */\n  mstore\n    /* \"#utility.yul\":467:471   */\n  0x24\n    /* \"#utility.yul\":464:465   */\n  0x00\n    /* \"#utility.yul\":457:472   */\n  revert\n    /* \"#utility.yul\":484:804   */\ntag_8:\n    /* \"#utility.yul\":528:534   */\n  0x00\n    /* \"#utility.yul\":565:566   */\n  0x02\n    /* \"#utility.yul\":559:563   */\n  dup3\n    /* \"#utility.yul\":555:567   */\n  div\n    /* \"#utility.yul\":545:567   */\n  swap1\n  pop\n    /* \"#utility.yul\":612:613   */\n  0x01\n    /* \"#utility.yul\":606:610   */\n  dup3\n    /* \"#utility.yul\":602:614   */\n  and\n    /* \"#utility.yul\":633:651   */\n  dup1\n    /* \"#utility.yul\":623:704   */\n  tag_30\n  jumpi\n    /* \"#utility.yul\":689:693   */\n  0x7f\n    /* \"#utility.yul\":681:687   */\n  dup3\n    /* \"#utility.yul\":677:694   */\n  and\n    /* \"#utility.yul\":667:694   */\n  swap2\n  pop\n    /* \"#utility.yul\":623:704   */\ntag_30:\n    /* \"#utility.yul\":751:753   */\n  0x20\n    /* \"#utility.yul\":743:749   */\n  dup3\n    /* \"#utility.yul\":740:754   */\n  lt\n    /* \"#utility.yul\":720:738   */\n  dup2\n    /* \"#utility.yul\":717:755   */\n  sub\n    /* \"#utility.yul\":714:798   */\n  tag_31\n  jumpi\n    /* \"#utility.yul\":770:788   */\n  tag_32\n  tag_7\n  jump\t// in\ntag_32:\n    /* \"#utility.yul\":714:798   */\ntag_31:\n    /* \"#utility.yul\":535:804   */\n  pop\n    /* \"#utility.yul\":484:804   */\n  swap2\n  swap1\n  pop\n  jump\t// out\n    /* \"#utility.yul\":810:951   */\ntag_9:\n    /* \"#utility.yul\":859:863   */\n  0x00\n    /* \"#utility.yul\":882:885   */\n  dup2\n    /* \"#utility.yul\":874:885   */\n  swap1\n  pop\n    /* \"#utility.yul\":905:908   */\n  dup2\n    /* \"#utility.yul\":902:903   */\n  0x00\n    /* \"#utility.yul\":895:909   */\n  mstore\n    /* \"#utility.yul\":939:943   */\n  0x20\n    /* \"#utility.yul\":936:937   */\n  0x00\n    /* \"#utility.yul\":926:944   */\n  keccak256\n    /* \"#utility.yul\":918:944   */\n  swap1\n  pop\n    /* \"#utility.yul\":810:951   */\n  swap2\n  swap1\n  pop\n  jump\t// out\n    /* \"#utility.yul\":957:1050   */\ntag_10:\n    /* \"#utility.yul\":994:1000   */\n  0x00\n    /* \"#utility.yul\":1041:1043   */\n  0x20\n    /* \"#utility.yul\":1036:1038   */\n  0x1f\n    /* \"#utility.yul\":1029:1034   */\n  dup4\n    /* \"#utility.yul\":1025:1039   */\n  add\n    /* \"#utility.yul\":1021:1044   */\n  div\n    /* \"#utility.yul\":1011:1044   */\n  swap1\n  pop\n    /* \"#utility.yul\":957:1050   */\n  swap2\n  swap1\n  pop\n  jump\t// out\n    /* \"#utility.yul\":1056:1163   */\ntag_11:\n    /* \"#utility.yul\":1100:1108   */\n  0x00\n    /* \"#utility.yul\":1150:1155   */\n  dup3\n    /* \"#utility.yul\":1144:1148   */\n  dup3\n    /* \"#utility.yul\":1140:1156   */\n  shl\n    /* \"#utility.yul\":1119:1156   */\n  swap1\n  pop\n    /* \"#utility.yul\":1056:1163   */\n  swap3\n  swap2\n  pop\n  pop\n  jump\t// out\n    /* \"#utility.yul\":1169:1562   */\ntag_12:\n    /* \"#utility.yul\":1238:1244   */\n  0x00\n    /* \"#utility.yul\":1288:1289   */\n  0x08\n    /* \"#utility.yul\":1276:1286   */\n  dup4\n    /* \"#utility.yul\":1272:1290   */\n  mul\n    /* \"#utility.yul\":1311:1408   */\n  tag_37\n    /* \"#utility.yul\":1341:1407   */\n  0xffffffffffffffffffffffffffffffffffffffffffffffffffffffffffffffff\n    /* \"#utility.yul\":1330:1339   */\n  dup3\n    /* \"#utility.yul\":1311:1408   */\n  tag_11\n  jump\t// in\ntag_37:\n    /* \"#utility.yul\":1429:1468   */\n  tag_38\n    /* \"#utility.yul\":1459:1467   */\n  dup7\n    /* \"#utility.yul\":1448:1457   */\n  dup4\n    /* \"#utility.yul\":1429:1468   */\n  tag_11\n  jump\t// in\ntag_38:\n    /* \"#utility.yul\":1417:1468   */\n  swap6\n  pop\n    /* \"#utility.yul\":1501:1505   */\n  dup1\n    /* \"#utility.yul\":1497:1506   */\n  not\n    /* \"#utility.yul\":1490:1495   */\n  dup5\n    /* \"#utility.yul\":1486:1507   */\n  and\n    /* \"#utility.yul\":1477:1507   */\n  swap4\n  pop\n    /* \"#utility.yul\":1550:1554   */\n  dup1\n    /* \"#utility.yul\":1540:1548   */\n  dup7\n    /* \"#utility.yul\":1536:1555   */\n  and\n    /* \"#utility.yul\":1529:1534   */\n  dup5\n    /* \"#utility.yul\":1526:1556   */\n  or\n    /* \"#utility.yul\":1516:1556   */\n  swap3\n  pop\n    /* \"#utility.yul\":1245:1562   */\n  pop\n  pop\n    /* \"#utility.yul\":1169:1562   */\n  swap4\n  swap3\n  pop\n  pop\n  pop\n  jump\t// out\n    /* \"#utility.yul\":1568:1645   */\ntag_13:\n    /* \"#utility.yul\":1605:1612   */\n  0x00\n    /* \"#utility.yul\":1634:1639   */\n  dup2\n    /* \"#utility.yul\":1623:1639   */\n  swap1\n  pop\n    /* \"#utility.yul\":1568:1645   */\n  swap2\n  swap1\n  pop\n  jump\t// out\n    /* \"#utility.yul\":1651:1711   */\ntag_14:\n    /* \"#utility.yul\":1679:1682   */\n  0x00\n    /* \"#utility.yul\":1700:1705   */\n  dup2\n    /* \"#utility.yul\":1693:1705   */\n  swap1\n  pop\n    /* \"#utility.yul\":1651:1711   */\n  swap2\n  swap1\n  pop\n  jump\t// out\n    /* \"#utility.yul\":1717:1859   */\ntag_15:\n    /* \"#utility.yul\":1767:1776   */\n  0x00\n    /* \"#utility.yul\":1800:1853   */\n  tag_42\n    /* \"#utility.yul\":1818:1852   */\n  tag_43\n    /* \"#utility.yul\":1827:1851   */\n  tag_44\n    /* \"#utility.yul\":1845:1850   */\n  dup5\n    /* \"#utility.yul\":1827:1851   */\n  tag_13\n  jump\t// in\ntag_44:\n    /* \"#utility.yul\":1818:1852   */\n  tag_14\n  jump\t// in\ntag_43:\n    /* \"#utility.yul\":1800:1853   */\n  tag_13\n  jump\t// in\ntag_42:\n    /* \"#utility.yul\":1787:1853   */\n  swap1\n  pop\n    /* \"#utility.yul\":1717:1859   */\n  swap2\n  swap1\n  pop\n  jump\t// out\n    /* \"#utility.yul\":1865:1940   */\ntag_16:\n    /* \"#utility.yul\":1908:1911   */\n  0x00\n    /* \"#utility.yul\":1929:1934   */\n  dup2\n    /* \"#utility.yul\":1922:1934   */\n  swap1\n  pop\n    /* \"#utility.yul\":1865:1940   */\n  swap2\n  swap1\n  pop\n  jump\t// out\n    /* \"#utility.yul\":1946:2215   */\ntag_17:\n    /* \"#utility.yul\":2056:2095   */\n  tag_47\n    /* \"#utility.yul\":2087:2094   */\n  dup4\n    /* \"#utility.yul\":2056:2095   */\n  tag_15\n  jump\t// in\ntag_47:\n    /* \"#utility.yul\":2117:2208   */\n  tag_48\n    /* \"#utility.yul\":2166:2207   */\n  tag_49\n    /* \"#utility.yul\":2190:2206   */\n  dup3\n    /* \"#utility.yul\":2166:2207   */\n  tag_16\n  jump\t// in\ntag_49:\n    /* \"#utility.yul\":2158:2164   */\n  dup5\n    /* \"#utility.yul\":2151:2155   */\n  dup5\n    /* \"#utility.yul\":2145:2156   */\n  sload\n    /* \"#utility.yul\":2117:2208   */\n  tag_12\n  jump\t// in\ntag_48:\n    /* \"#utility.yul\":2111:2115   */\n  dup3\n    /* \"#utility.yul\":2104:2209   */\n  sstore\n    /* \"#utility.yul\":2022:2215   */\n  pop\n    /* \"#utility.yul\":1946:2215   */\n  pop\n  pop\n  pop\n  jump\t// out\n    /* \"#utility.yul\":2221:2294   */\ntag_18:\n    /* \"#utility.yul\":2266:2269   */\n  0x00\n    /* \"#utility.yul\":2221:2294   */\n  swap1\n  jump\t// out\n    /* \"#utility.yul\":2300:2489   */\ntag_19:\n    /* \"#utility.yul\":2377:2409   */\n  tag_52\n  tag_18\n  jump\t// in\ntag_52:\n    /* \"#utility.yul\":2418:2483   */\n  tag_53\n    /* \"#utility.yul\":2476:2482   */\n  dup2\n    /* \"#utility.yul\":2468:2474   */\n  dup5\n    /* \"#utility.yul\":2462:2466   */\n  dup5\n    /* \"#utility.yul\":2418:2483   */\n  tag_17\n  jump\t// in\ntag_53:\n    /* \"#utility.yul\":2353:2489   */\n  pop\n    /* \"#utility.yul\":2300:2489   */\n  pop\n  pop\n  jump\t// out\n    /* \"#utility.yul\":2495:2681   */\ntag_20:\n    /* \"#utility.yul\":2555:2675   */\ntag_55:\n    /* \"#utility.yul\":2572:2575   */\n  dup2\n    /* \"#utility.yul\":2565:2570   */\n  dup2\n    /* \"#utility.yul\":2562:2576   */\n  lt\n    /* \"#utility.yul\":2555:2675   */\n  iszero\n  tag_57\n  jumpi\n    /* \"#utility.yul\":2626:2665   */\n  tag_58\n    /* \"#utility.yul\":2663:2664   */\n  0x00\n    /* \"#utility.yul\":2656:2661   */\n  dup3\n    /* \"#utility.yul\":2626:2665   */\n  tag_19\n  jump\t// in\ntag_58:\n    /* \"#utility.yul\":2599:2600   */\n  0x01\n    /* \"#utility.yul\":2592:2597   */\n  dup2\n    /* \"#utility.yul\":2588:2601   */\n  add\n    /* \"#utility.yul\":2579:2601   */\n  swap1\n  pop\n    /* \"#utility.yul\":2555:2675   */\n  jump(tag_55)\ntag_57:\n    /* \"#utility.yul\":2495:2681   */\n  pop\n  pop\n  jump\t// out\n    /* \"#utility.yul\":2687:3230   */\ntag_21:\n    /* \"#utility.yul\":2788:2790   */\n  0x1f\n    /* \"#utility.yul\":2783:2786   */\n  dup3\n    /* \"#utility.yul\":2780:2791   */\n  gt\n    /* \"#utility.yul\":2777:3223   */\n  iszero\n  tag_60\n  jumpi\n    /* \"#utility.yul\":2822:2860   */\n  tag_61\n    /* \"#utility.yul\":2854:2859   */\n  dup2\n    /* \"#utility.yul\":2822:2860   */\n  tag_9\n  jump\t// in\ntag_61:\n    /* \"#utility.yul\":2906:2935   */\n  tag_62\n    /* \"#utility.yul\":2924:2934   */\n  dup5\n    /* \"#utility.yul\":2906:2935   */\n  tag_10\n  jump\t// in\ntag_62:\n    /* \"#utility.yul\":2896:2904   */\n  dup2\n    /* \"#utility.yul\":2892:2936   */\n  add\n    /* \"#utility.yul\":3089:3091   */\n  0x20\n    /* \"#utility.yul\":3077:3087   */\n  dup6\n    /* \"#utility.yul\":3074:3092   */\n  lt\n    /* \"#utility.yul\":3071:3120   */\n  iszero\n  tag_63\n  jumpi\n    /* \"#utility.yul\":3110:3118   */\n  dup2\n    /* \"#utility.yul\":3095:3118   */\n  swap1\n  pop\n    /* \"#utility.yul\":3071:3120   */\ntag_63:\n    /* \"#utility.yul\":3133:3213   */\n  tag_64\n    /* \"#utility.yul\":3189:3211   */\n  tag_65\n    /* \"#utility.yul\":3207:3210   */\n  dup6\n    /* \"#utility.yul\":3189:3211   */\n  tag_10\n  jump\t// in\ntag_65:\n    /* \"#utility.yul\":3179:3187   */\n  dup4\n    /* \"#utility.yul\":3175:3212   */\n  add\n    /* \"#utility.yul\":3162:3173   */\n  dup3\n    /* \"#utility.yul\":3133:3213   */\n  tag_20\n  jump\t// in\ntag_64:\n    /* \"#utility.yul\":2792:3223   */\n  pop\n  pop\n    /* \"#utility.yul\":2777:3223   */\ntag_60:\n    /* \"#utility.yul\":2687:3230   */\n  pop\n  pop\n  pop\n  jump\t// out\n    /* \"#utility.yul\":3236:3353   */\ntag_22:\n    /* \"#utility.yul\":3290:3298   */\n  0x00\n    /* \"#utility.yul\":3340:3345   */\n  dup3\n    /* \"#utility.yul\":3334:3338   */\n  dup3\n    /* \"#utility.yul\":3330:3346   */\n  shr\n    /* \"#utility.yul\":3309:3346   */\n  swap1\n  pop\n    /* \"#utility.yul\":3236:3353   */\n  swap3\n  swap2\n  pop\n  pop\n  jump\t// out\n    /* \"#utility.yul\":3359:3528   */\ntag_23:\n    /* \"#utility.yul\":3403:3409   */\n  0x00\n    /* \"#utility.yul\":3436:3487   */\n  tag_68\n    /* \"#utility.yul\":3484:3485   */\n  0x00\n    /* \"#utility.yul\":3480:3486   */\n  not\n    /* \"#utility.yul\":3472:3477   */\n  dup5\n    /* \"#utility.yul\":3469:3470   */\n  0x08\n    /* \"#utility.yul\":3465:3478   */\n  mul\n    /* \"#utility.yul\":3436:3487   */\n  tag_22\n  jump\t// in\ntag_68:\n    /* \"#utility.yul\":3432:3488   */\n  not\n    /* \"#utility.yul\":3517:3521   */\n  dup1\n    /* \"#utility.yul\":3511:3515   */\n  dup4\n    /* \"#utility.yul\":3507:3522   */\n  and\n    /* \"#utility.yul\":3497:3522   */\n  swap2\n  pop\n    /* \"#utility.yul\":3410:3528   */\n  pop\n    /* \"#utility.yul\":3359:3528   */\n  swap3\n  swap2\n  pop\n  pop\n  jump\t// out\n    /* \"#utility.yul\":3533:3828   */\ntag_24:\n    /* \"#utility.yul\":3609:3613   */\n  0x00\n    /* \"#utility.yul\":3755:3784   */\n  tag_70\n    /* \"#utility.yul\":3780:3783   */\n  dup4\n    /* \"#utility.yul\":3774:3778   */\n  dup4\n    /* \"#utility.yul\":3755:3784   */\n  tag_23\n  jump\t// in\ntag_70:\n    /* \"#utility.yul\":3747:3784   */\n  swap2\n  pop\n    /* \"#utility.yul\":3817:3820   */\n  dup3\n    /* \"#utility.yul\":3814:3815   */\n  0x02\n    /* \"#utility.yul\":3810:3821   */\n  mul\n    /* \"#utility.yul\":3804:3808   */\n  dup3\n    /* \"#utility.yul\":3801:3822   */\n  or\n    /* \"#utility.yul\":3793:3822   */\n  swap1\n  pop\n    /* \"#utility.yul\":3533:3828   */\n  swap3\n  swap2\n  pop\n  pop\n  jump\t// out\n    /* \"#utility.yul\":3833:5228   */\ntag_2:\n    /* \"#utility.yul\":3950:3987   */\n  tag_72\n    /* \"#utility.yul\":3983:3986   */\n  dup3\n    /* \"#utility.yul\":3950:3987   */\n  tag_5\n  jump\t// in\ntag_72:\n    /* \"#utility.yul\":4052:4070   */\n  0xffffffffffffffff\n    /* \"#utility.yul\":4044:4050   */\n  dup2\n    /* \"#utility.yul\":4041:4071   */\n  gt\n    /* \"#utility.yul\":4038:4094   */\n  iszero\n  tag_73\n  jumpi\n    /* \"#utility.yul\":4074:4092   */\n  tag_74\n  tag_6\n  jump\t// in\ntag_74:\n    /* \"#utility.yul\":4038:4094   */\ntag_73:\n    /* \"#utility.yul\":4118:4156   */\n  tag_75\n    /* \"#utility.yul\":4150:4154   */\n  dup3\n    /* \"#utility.yul\":4144:4155   */\n  sload\n    /* \"#utility.yul\":4118:4156   */\n  tag_8\n  jump\t// in\ntag_75:\n    /* \"#utility.yul\":4203:4270   */\n  tag_76\n    /* \"#utility.yul\":4263:4269   */\n  dup3\n    /* \"#utility.yul\":4255:4261   */\n  dup3\n    /* \"#utility.yul\":4249:4253   */\n  dup6\n    /* \"#utility.yul\":4203:4270   */\n  tag_21\n  jump\t// in\ntag_76:\n    /* \"#utility.yul\":4297:4298   */\n  0x00\n    /* \"#utility.yul\":4321:4325   */\n  0x20\n    /* \"#utility.yul\":4308:4325   */\n  swap1\n  pop\n    /* \"#utility.yul\":4353:4355   */\n  0x1f\n    /* \"#utility.yul\":4345:4351   */\n  dup4\n    /* \"#utility.yul\":4342:4356   */\n  gt\n    /* \"#utility.yul\":4370:4371   */\n  0x01\n    /* \"#utility.yul\":4365:4983   */\n  dup2\n  eq\n  tag_78\n  jumpi\n    /* \"#utility.yul\":5027:5028   */\n  0x00\n    /* \"#utility.yul\":5044:5050   */\n  dup5\n    /* \"#utility.yul\":5041:5118   */\n  iszero\n  tag_79\n  jumpi\n    /* \"#utility.yul\":5093:5102   */\n  dup3\n    /* \"#utility.yul\":5088:5091   */\n  dup8\n    /* \"#utility.yul\":5084:5103   */\n  add\n    /* \"#utility.yul\":5078:5104   */\n  mload\n    /* \"#utility.yul\":5069:5104   */\n  swap1\n  pop\n    /* \"#utility.yul\":5041:5118   */\ntag_79:\n    /* \"#utility.yul\":5144:5211   */\n  tag_80\n    /* \"#utility.yul\":5204:5210   */\n  dup6\n    /* \"#utility.yul\":5197:5202   */\n  dup3\n    /* \"#utility.yul\":5144:5211   */\n  tag_24\n  jump\t// in\ntag_80:\n    /* \"#utility.yul\":5138:5142   */\n  dup7\n    /* \"#utility.yul\":5131:5212   */\n  sstore\n    /* \"#utility.yul\":5000:5222   */\n  pop\n    /* \"#utility.yul\":4335:5222   */\n  jump(tag_77)\n    /* \"#utility.yul\":4365:4983   */\ntag_78:\n    /* \"#utility.yul\":4417:4421   */\n  0x1f\n    /* \"#utility.yul\":4413:4422   */\n  not\n    /* \"#utility.yul\":4405:4411   */\n  dup5\n    /* \"#utility.yul\":4401:4423   */\n  and\n    /* \"#utility.yul\":4451:4488   */\n  tag_81\n    /* \"#utility.yul\":4483:4487   */\n  dup7\n    /* \"#utility.yul\":4451:4488   */\n  tag_9\n  jump\t// in\ntag_81:\n    /* \"#utility.yul\":4510:4511   */\n  0x00\n    /* \"#utility.yul\":4524:4732   */\ntag_82:\n    /* \"#utility.yul\":4538:4545   */\n  dup3\n    /* \"#utility.yul\":4535:4536   */\n  dup2\n    /* \"#utility.yul\":4532:4546   */\n  lt\n    /* \"#utility.yul\":4524:4732   */\n  iszero\n  tag_84\n  jumpi\n    /* \"#utility.yul\":4617:4626   */\n  dup5\n    /* \"#utility.yul\":4612:4615   */\n  dup10\n    /* \"#utility.yul\":4608:4627   */\n  add\n    /* \"#utility.yul\":4602:4628   */\n  mload\n    /* \"#utility.yul\":4594:4600   */\n  dup3\n    /* \"#utility.yul\":4587:4629   */\n  sstore\n    /* \"#utility.yul\":4668:4669   */\n  0x01\n    /* \"#utility.yul\":4660:4666   */\n  dup3\n    /* \"#utility.yul\":4656:4670   */\n  add\n    /* \"#utility.yul\":4646:4670   */\n  swap2\n  pop\n    /* \"#utility.yul\":4715:4717   */\n  0x20\n    /* \"#utility.yul\":4704:4713   */\n  dup6\n    /* \"#utility.yul\":4700:4718   */\n  add\n    /* \"#utility.yul\":4687:4718   */\n  swap5\n  pop\n    /* \"#utility.yul\":4561:4565   */\n  0x20\n    /* \"#utility.yul\":4558:4559   */\n  dup2\n    /* \"#utility.yul\":4554:4566   */\n  add\n    /* \"#utility.yul\":4549:4566   */\n  swap1\n  pop\n    /* \"#utility.yul\":4524:4732   */\n  jump(tag_82)\ntag_84:\n    /* \"#utility.yul\":4760:4766   */\n  dup7\n    /* \"#utility.yul\":4751:4758   */\n  dup4\n    /* \"#utility.yul\":4748:4767   */\n  lt\n    /* \"#utility.yul\":4745:4924   */\n  iszero\n  tag_85\n  jumpi\n    /* \"#utility.yul\":4818:4827   */\n  dup5\n    /* \"#utility.yul\":4813:4816   */\n  dup10\n    /* \"#utility.yul\":4809:4828   */\n  add\n    /* \"#utility.yul\":4803:4829   */\n  mload\n    /* \"#utility.yul\":4861:4909   */\n  tag_86\n    /* \"#utility.yul\":4903:4907   */\n  0x1f\n    /* \"#utility.yul\":4895:4901   */\n  dup10\n    /* \"#utility.yul\":4891:4908   */\n  and\n    /* \"#utility.yul\":4880:4889   */\n  dup3\n    /* \"#utility.yul\":4861:4909   */\n  tag_23\n  jump\t// in\ntag_86:\n    /* \"#utility.yul\":4853:4859   */\n  dup4\n    /* \"#utility.yul\":4846:4910   */\n  sstore\n    /* \"#utility.yul\":4768:4924   */\n  pop\n    /* \"#utility.yul\":4745:4924   */\ntag_85:\n    /* \"#utility.yul\":4970:4971   */\n  0x01\n    /* \"#utility.yul\":4966:4967   */\n  0x02\n    /* \"#utility.yul\":4958:4964   */\n  dup9\n    /* \"#utility.yul\":4954:4968   */\n  mul\n    /* \"#utility.yul\":4950:4972   */\n  add\n    /* \"#utility.yul\":4944:4948   */\n  dup9\n    /* \"#utility.yul\":4937:4973   */\n  sstore\n    /* \"#utility.yul\":4372:4983   */\n  pop\n  pop\n  pop\n    /* \"#utility.yul\":4335:5222   */\ntag_77:\n  pop\n    /* \"#utility.yul\":3925:5228   */\n  pop\n  pop\n  pop\n    /* \"#utility.yul\":3833:5228   */\n  pop\n  pop\n  jump\t// out\n    /* \"SimpleStorage.sol\":60:2694  contract SimpleStorage{... */\ntag_4:\n  dataSize(sub_0)\n  dup1\n  dataOffset(sub_0)\n  0x00\n  codecopy\n  0x00\n  return\nstop\n\nsub_0: assembly {\n        /* \"SimpleStorage.sol\":60:2694  contract SimpleStorage{... */\n      mstore(0x40, 0x80)\n      callvalue\n      dup1\n      iszero\n      tag_1\n      jumpi\n      0x00\n      dup1\n      revert\n    tag_1:\n      pop\n      jumpi(tag_2, lt(calldatasize, 0x04))\n      shr(0xe0, calldataload(0x00))\n      dup1\n      0x9654613b\n      gt\n      tag_12\n      jumpi\n      dup1\n      0x9654613b\n      eq\n      tag_7\n      jumpi\n      dup1\n      0x98e1b410\n      eq\n      tag_8\n      jumpi\n      dup1\n      0x9b9ff3fe\n      eq\n      tag_9\n      jumpi\n      dup1\n      0xda9c2b6b\n      eq\n      tag_10\n      jumpi\n      dup1\n      0xe5140521\n      eq\n      tag_11\n      jumpi\n      jump(tag_2)\n    tag_12:\n      dup1\n      0x122d232b\n      eq\n      tag_3\n      jumpi\n      dup1\n      0x72716b25\n      eq\n      tag_4\n      jumpi\n      dup1\n      0x81c60603\n      eq\n      tag_5\n      jumpi\n      dup1\n      0x877e3630\n      eq\n      tag_6\n      jumpi\n    tag_2:\n      0x00\n      dup1\n      revert\n        /* \"SimpleStorage.sol\":1922:2014  function doubleMoney(int16 mon) pure public returns(int16) {... */\n    tag_3:\n      tag_13\n      0x04\n      dup1\n      calldatasize\n      sub\n      dup2\n      add\n      swap1\n      tag_14\n      swap2\n      swap1\n      tag_15\n      jump\t// in\n    tag_14:\n      tag_16\n      jump\t// in\n    tag_13:\n      mload(0x40)\n      tag_17\n      swap2\n      swap1\n      tag_18\n      jump\t// in\n    tag_17:\n      mload(0x40)\n      dup1\n      swap2\n      sub\n      swap1\n      return\n        /* \"SimpleStorage.sol\":924:956  Person[] public personOnMyFamily */\n    tag_4:\n      tag_19\n      0x04\n      dup1\n      calldatasize\n      sub\n      dup2\n      add\n      swap1\n      tag_20\n      swap2\n      swap1\n      tag_21\n      jump\t// in\n    tag_20:\n      tag_22\n      jump\t// in\n    tag_19:\n      mload(0x40)\n      tag_23\n      swap3\n      swap2\n      swap1\n      tag_24\n      jump\t// in\n    tag_23:\n      mload(0x40)\n      dup1\n      swap2\n      sub\n      swap1\n      return\n        /* \"SimpleStorage.sol\":438:467  uint16[] public hobbieNumbers */\n    tag_5:\n      tag_25\n      0x04\n      dup1\n      calldatasize\n      sub\n      dup2\n      add\n      swap1\n      tag_26\n      swap2\n      swap1\n      tag_21\n      jump\t// in\n    tag_26:\n      tag_27\n      jump\t// in\n    tag_25:\n      mload(0x40)\n      tag_28\n      swap2\n      swap1\n      tag_29\n      jump\t// in\n    tag_28:\n      mload(0x40)\n      dup1\n      swap2\n      sub\n      swap1\n      return\n        /* \"SimpleStorage.sol\":2576:2691  function setMyBalance(address m_Address, uint256 m_amount) public {... */\n    tag_6:\n      tag_30\n      0x04\n      dup1\n      calldatasize\n      sub\n      dup2\n      add\n      swap1\n      tag_31\n      swap2\n      swap1\n      tag_32\n      jump\t// in\n    tag_31:\n      tag_33\n      jump\t// in\n    tag_30:\n      stop\n        /* \"SimpleStorage.sol\":1296:1373  function setMoney(int16 newMoney) public {... */\n    tag_7:\n      tag_34\n      0x04\n      dup1\n      calldatasize\n      sub\n      dup2\n      add\n      swap1\n      tag_35\n      swap2\n      swap1\n      tag_15\n      jump\t// in\n    tag_35:\n      tag_36\n      jump\t// in\n    tag_34:\n      stop\n        /* \"SimpleStorage.sol\":1651:1729  function getMoney() view public returns(int16) {... */\n    tag_8:\n      tag_37\n      tag_38\n      jump\t// in\n    tag_37:\n      mload(0x40)\n      tag_39\n      swap2\n      swap1\n      tag_18\n      jump\t// in\n    tag_39:\n      mload(0x40)\n      dup1\n      swap2\n      sub\n      swap1\n      return\n        /* \"SimpleStorage.sol\":1024:1085  mapping(address myAddress  => uint256 amount) public MyBlance */\n    tag_9:\n      tag_40\n      0x04\n      dup1\n      calldatasize\n      sub\n      dup2\n      add\n      swap1\n      tag_41\n      swap2\n      swap1\n      tag_42\n      jump\t// in\n    tag_41:\n      tag_43\n      jump\t// in\n    tag_40:\n      mload(0x40)\n      tag_44\n      swap2\n      swap1\n      tag_45\n      jump\t// in\n    tag_44:\n      mload(0x40)\n      dup1\n      swap2\n      sub\n      swap1\n      return\n        /* \"SimpleStorage.sol\":2405:2548  function addNewPerson(string memory p_name, uint256  p_age ) public {... */\n    tag_10:\n      tag_46\n      0x04\n      dup1\n      calldatasize\n      sub\n      dup2\n      add\n      swap1\n      tag_47\n      swap2\n      swap1\n      tag_48\n      jump\t// in\n    tag_47:\n      tag_49\n      jump\t// in\n    tag_46:\n      stop\n        /* \"SimpleStorage.sol\":2064:2165  function addNewHobbieNumber(uint16 newNumber) public {... */\n    tag_11:\n      tag_50\n      0x04\n      dup1\n      calldatasize\n      sub\n      dup2\n      add\n      swap1\n      tag_51\n      swap2\n      swap1\n      tag_52\n      jump\t// in\n    tag_51:\n      tag_53\n      jump\t// in\n    tag_50:\n      stop\n        /* \"SimpleStorage.sol\":1922:2014  function doubleMoney(int16 mon) pure public returns(int16) {... */\n    tag_16:\n        /* \"SimpleStorage.sol\":1974:1979  int16 */\n      0x00\n        /* \"SimpleStorage.sol\":2005:2006  2 */\n      0x02\n        /* \"SimpleStorage.sol\":1999:2002  mon */\n      dup3\n        /* \"SimpleStorage.sol\":1999:2006  mon * 2 */\n      tag_55\n      swap2\n      swap1\n      tag_56\n      jump\t// in\n    tag_55:\n        /* \"SimpleStorage.sol\":1992:2006  return mon * 2 */\n      swap1\n      pop\n        /* \"SimpleStorage.sol\":1922:2014  function doubleMoney(int16 mon) pure public returns(int16) {... */\n      swap2\n      swap1\n      pop\n      jump\t// out\n        /* \"SimpleStorage.sol\":924:956  Person[] public personOnMyFamily */\n    tag_22:\n      0x05\n      dup2\n      dup2\n      sload\n      dup2\n      lt\n      tag_57\n      jumpi\n      0x00\n      dup1\n      revert\n    tag_57:\n      swap1\n      0x00\n      mstore\n      keccak256(0x00, 0x20)\n      swap1\n      0x02\n      mul\n      add\n      0x00\n      swap2\n      pop\n      swap1\n      pop\n      dup1\n      0x00\n      add\n      dup1\n      sload\n      tag_59\n      swap1\n      tag_60\n      jump\t// in\n    tag_59:\n      dup1\n      0x1f\n      add\n      0x20\n      dup1\n      swap2\n      div\n      mul\n      0x20\n      add\n      mload(0x40)\n      swap1\n      dup2\n      add\n      0x40\n      mstore\n      dup1\n      swap3\n      swap2\n      swap1\n      dup2\n      dup2\n      mstore\n      0x20\n      add\n      dup3\n      dup1\n      sload\n      tag_61\n      swap1\n      tag_60\n      jump\t// in\n    tag_61:\n      dup1\n      iszero\n      tag_62\n      jumpi\n      dup1\n      0x1f\n      lt\n      tag_63\n      jumpi\n      0x0100\n      dup1\n      dup4\n      sload\n      div\n      mul\n      dup4\n      mstore\n      swap2\n      0x20\n      add\n      swap2\n      jump(tag_62)\n    tag_63:\n      dup3\n      add\n      swap2\n      swap1\n      0x00\n      mstore\n      keccak256(0x00, 0x20)\n      swap1\n    tag_64:\n      dup2\n      sload\n      dup2\n      mstore\n      swap1\n      0x01\n      add\n      swap1\n      0x20\n      add\n      dup1\n      dup4\n      gt\n      tag_64\n      jumpi\n      dup3\n      swap1\n      sub\n      0x1f\n      and\n      dup3\n      add\n      swap2\n    tag_62:\n      pop\n      pop\n      pop\n      pop\n      pop\n      swap1\n      dup1\n      0x01\n      add\n      sload\n      swap1\n      pop\n      dup3\n      jump\t// out\n        /* \"SimpleStorage.sol\":438:467  uint16[] public hobbieNumbers */\n    tag_27:\n      0x02\n      dup2\n      dup2\n      sload\n      dup2\n      lt\n      tag_65\n      jumpi\n      0x00\n      dup1\n      revert\n    tag_65:\n      swap1\n      0x00\n      mstore\n      keccak256(0x00, 0x20)\n      swap1\n      0x10\n      swap2\n      dup3\n      dup3\n      div\n      add\n      swap2\n      swap1\n      mod\n      0x02\n      mul\n      swap2\n      pop\n      sload\n      swap1\n      0x0100\n      exp\n      swap1\n      div\n      0xffff\n      and\n      dup2\n      jump\t// out\n        /* \"SimpleStorage.sol\":2576:2691  function setMyBalance(address m_Address, uint256 m_amount) public {... */\n    tag_33:\n        /* \"SimpleStorage.sol\":2675:2683  m_amount */\n      dup1\n        /* \"SimpleStorage.sol\":2653:2661  MyBlance */\n      0x06\n        /* \"SimpleStorage.sol\":2653:2672  MyBlance[m_Address] */\n      0x00\n        /* \"SimpleStorage.sol\":2662:2671  m_Address */\n      dup5\n        /* \"SimpleStorage.sol\":2653:2672  MyBlance[m_Address] */\n      0xffffffffffffffffffffffffffffffffffffffff\n      and\n      0xffffffffffffffffffffffffffffffffffffffff\n      and\n      dup2\n      mstore\n      0x20\n      add\n      swap1\n      dup2\n      mstore\n      0x20\n      add\n      0x00\n      keccak256\n        /* \"SimpleStorage.sol\":2653:2683  MyBlance[m_Address] = m_amount */\n      dup2\n      swap1\n      sstore\n      pop\n        /* \"SimpleStorage.sol\":2576:2691  function setMyBalance(address m_Address, uint256 m_amount) public {... */\n      pop\n      pop\n      jump\t// out\n        /* \"SimpleStorage.sol\":1296:1373  function setMoney(int16 newMoney) public {... */\n    tag_36:\n        /* \"SimpleStorage.sol\":1356:1364  newMoney */\n      dup1\n        /* \"SimpleStorage.sol\":1348:1353  money */\n      0x00\n      dup1\n        /* \"SimpleStorage.sol\":1348:1364  money = newMoney */\n      0x0100\n      exp\n      dup2\n      sload\n      dup2\n      0xffff\n      mul\n      not\n      and\n      swap1\n      dup4\n      0x01\n      signextend\n      0xffff\n      and\n      mul\n      or\n      swap1\n      sstore\n      pop\n        /* \"SimpleStorage.sol\":1296:1373  function setMoney(int16 newMoney) public {... */\n      pop\n      jump\t// out\n        /* \"SimpleStorage.sol\":1651:1729  function getMoney() view public returns(int16) {... */\n    tag_38:\n        /* \"SimpleStorage.sol\":1691:1696  int16 */\n      0x00\n        /* \"SimpleStorage.sol\":1716:1721  money */\n      dup1\n      0x00\n      swap1\n      sload\n      swap1\n      0x0100\n      exp\n      swap1\n      div\n      0x01\n      signextend\n        /* \"SimpleStorage.sol\":1709:1721  return money */\n      swap1\n      pop\n        /* \"SimpleStorage.sol\":1651:1729  function getMoney() view public returns(int16) {... */\n      swap1\n      jump\t// out\n        /* \"SimpleStorage.sol\":1024:1085  mapping(address myAddress  => uint256 amount) public MyBlance */\n    tag_43:\n      mstore(0x20, 0x06)\n      dup1\n      0x00\n      mstore\n      keccak256(0x00, 0x40)\n      0x00\n      swap2\n      pop\n      swap1\n      pop\n      sload\n      dup2\n      jump\t// out\n        /* \"SimpleStorage.sol\":2405:2548  function addNewPerson(string memory p_name, uint256  p_age ) public {... */\n    tag_49:\n        /* \"SimpleStorage.sol\":2484:2500  personOnMyFamily */\n      0x05\n        /* \"SimpleStorage.sol\":2506:2539  Person({name:p_name, age: p_age}) */\n      mload(0x40)\n      dup1\n      0x40\n      add\n      0x40\n      mstore\n      dup1\n        /* \"SimpleStorage.sol\":2519:2525  p_name */\n      dup5\n        /* \"SimpleStorage.sol\":2506:2539  Person({name:p_name, age: p_age}) */\n      dup2\n      mstore\n      0x20\n      add\n        /* \"SimpleStorage.sol\":2532:2537  p_age */\n      dup4\n        /* \"SimpleStorage.sol\":2506:2539  Person({name:p_name, age: p_age}) */\n      dup2\n      mstore\n      pop\n        /* \"SimpleStorage.sol\":2484:2540  personOnMyFamily.push(Person({name:p_name, age: p_age})) */\n      swap1\n      dup1\n      0x01\n      dup2\n      sload\n      add\n      dup1\n      dup3\n      sstore\n      dup1\n      swap2\n      pop\n      pop\n      0x01\n      swap1\n      sub\n      swap1\n      0x00\n      mstore\n      keccak256(0x00, 0x20)\n      swap1\n      0x02\n      mul\n      add\n      0x00\n      swap1\n      swap2\n      swap1\n      swap2\n      swap1\n      swap2\n      pop\n      0x00\n      dup3\n      add\n      mload\n      dup2\n      0x00\n      add\n      swap1\n      dup2\n      tag_72\n      swap2\n      swap1\n      tag_73\n      jump\t// in\n    tag_72:\n      pop\n      0x20\n      dup3\n      add\n      mload\n      dup2\n      0x01\n      add\n      sstore\n      pop\n      pop\n        /* \"SimpleStorage.sol\":2405:2548  function addNewPerson(string memory p_name, uint256  p_age ) public {... */\n      pop\n      pop\n      jump\t// out\n        /* \"SimpleStorage.sol\":2064:2165  function addNewHobbieNumber(uint16 newNumber) public {... */\n    tag_53:\n        /* \"SimpleStorage.sol\":2128:2141  hobbieNumbers */\n      0x02\n        /* \"SimpleStorage.sol\":2147:2156  newNumber */\n      dup2\n        /* \"SimpleStorage.sol\":2128:2157  hobbieNumbers.push(newNumber) */\n      swap1\n      dup1\n      0x01\n      dup2\n      sload\n      add\n      dup1\n      dup3\n      sstore\n      dup1\n      swap2\n      pop\n      pop\n      0x01\n      swap1\n      sub\n      swap1\n      0x00\n      mstore\n      keccak256(0x00, 0x20)\n      swap1\n      0x10\n      swap2\n      dup3\n      dup3\n      div\n      add\n      swap2\n      swap1\n      mod\n      0x02\n      mul\n      swap1\n      swap2\n      swap1\n      swap2\n      swap1\n      swap2\n      0x0100\n      exp\n      dup2\n      sload\n      dup2\n      0xffff\n      mul\n      not\n      and\n      swap1\n      dup4\n      0xffff\n      and\n      mul\n      or\n      swap1\n      sstore\n      pop\n        /* \"SimpleStorage.sol\":2064:2165  function addNewHobbieNumber(uint16 newNumber) public {... */\n      pop\n      jump\t// out\n        /* \"#utility.yul\":7:82   */\n    tag_76:\n        /* \"#utility.yul\":40:46   */\n      0x00\n        /* \"#utility.yul\":73:75   */\n      0x40\n        /* \"#utility.yul\":67:76   */\n      mload\n        /* \"#utility.yul\":57:76   */\n      swap1\n      pop\n        /* \"#utility.yul\":7:82   */\n      swap1\n      jump\t// out\n        /* \"#utility.yul\":88:205   */\n    tag_77:\n        /* \"#utility.yul\":197:198   */\n      0x00\n        /* \"#utility.yul\":194:195   */\n      dup1\n        /* \"#utility.yul\":187:199   */\n      revert\n        /* \"#utility.yul\":211:328   */\n    tag_78:\n        /* \"#utility.yul\":320:321   */\n      0x00\n        /* \"#utility.yul\":317:318   */\n      dup1\n        /* \"#utility.yul\":310:322   */\n      revert\n        /* \"#utility.yul\":334:424   */\n    tag_79:\n        /* \"#utility.yul\":369:376   */\n      0x00\n        /* \"#utility.yul\":412:417   */\n      dup2\n        /* \"#utility.yul\":409:410   */\n      0x01\n        /* \"#utility.yul\":398:418   */\n      signextend\n        /* \"#utility.yul\":387:418   */\n      swap1\n      pop\n        /* \"#utility.yul\":334:424   */\n      swap2\n      swap1\n      pop\n      jump\t// out\n        /* \"#utility.yul\":430:548   */\n    tag_80:\n        /* \"#utility.yul\":501:523   */\n      tag_132\n        /* \"#utility.yul\":517:522   */\n      dup2\n        /* \"#utility.yul\":501:523   */\n      tag_79\n      jump\t// in\n    tag_132:\n        /* \"#utility.yul\":494:499   */\n      dup2\n        /* \"#utility.yul\":491:524   */\n      eq\n        /* \"#utility.yul\":481:542   */\n      tag_133\n      jumpi\n        /* \"#utility.yul\":538:539   */\n      0x00\n        /* \"#utility.yul\":535:536   */\n      dup1\n        /* \"#utility.yul\":528:540   */\n      revert\n        /* \"#utility.yul\":481:542   */\n    tag_133:\n        /* \"#utility.yul\":430:548   */\n      pop\n      jump\t// out\n        /* \"#utility.yul\":554:689   */\n    tag_81:\n        /* \"#utility.yul\":598:603   */\n      0x00\n        /* \"#utility.yul\":636:642   */\n      dup2\n        /* \"#utility.yul\":623:643   */\n      calldataload\n        /* \"#utility.yul\":614:643   */\n      swap1\n      pop\n        /* \"#utility.yul\":652:683   */\n      tag_135\n        /* \"#utility.yul\":677:682   */\n      dup2\n        /* \"#utility.yul\":652:683   */\n      tag_80\n      jump\t// in\n    tag_135:\n        /* \"#utility.yul\":554:689   */\n      swap3\n      swap2\n      pop\n      pop\n      jump\t// out\n        /* \"#utility.yul\":695:1020   */\n    tag_15:\n        /* \"#utility.yul\":752:758   */\n      0x00\n        /* \"#utility.yul\":801:803   */\n      0x20\n        /* \"#utility.yul\":789:798   */\n      dup3\n        /* \"#utility.yul\":780:787   */\n      dup5\n        /* \"#utility.yul\":776:799   */\n      sub\n        /* \"#utility.yul\":772:804   */\n      slt\n        /* \"#utility.yul\":769:888   */\n      iszero\n      tag_137\n      jumpi\n        /* \"#utility.yul\":807:886   */\n      tag_138\n      tag_77\n      jump\t// in\n    tag_138:\n        /* \"#utility.yul\":769:888   */\n    tag_137:\n        /* \"#utility.yul\":927:928   */\n      0x00\n        /* \"#utility.yul\":952:1003   */\n      tag_139\n        /* \"#utility.yul\":995:1002   */\n      dup5\n        /* \"#utility.yul\":986:992   */\n      dup3\n        /* \"#utility.yul\":975:984   */\n      dup6\n        /* \"#utility.yul\":971:993   */\n      add\n        /* \"#utility.yul\":952:1003   */\n      tag_81\n      jump\t// in\n    tag_139:\n        /* \"#utility.yul\":942:1003   */\n      swap2\n      pop\n        /* \"#utility.yul\":898:1013   */\n      pop\n        /* \"#utility.yul\":695:1020   */\n      swap3\n      swap2\n      pop\n      pop\n      jump\t// out\n        /* \"#utility.yul\":1026:1138   */\n    tag_82:\n        /* \"#utility.yul\":1109:1131   */\n      tag_141\n        /* \"#utility.yul\":1125:1130   */\n      dup2\n        /* \"#utility.yul\":1109:1131   */\n      tag_79\n      jump\t// in\n    tag_141:\n        /* \"#utility.yul\":1104:1107   */\n      dup3\n        /* \"#utility.yul\":1097:1132   */\n      mstore\n        /* \"#utility.yul\":1026:1138   */\n      pop\n      pop\n      jump\t// out\n        /* \"#utility.yul\":1144:1358   */\n    tag_18:\n        /* \"#utility.yul\":1233:1237   */\n      0x00\n        /* \"#utility.yul\":1271:1273   */\n      0x20\n        /* \"#utility.yul\":1260:1269   */\n      dup3\n        /* \"#utility.yul\":1256:1274   */\n      add\n        /* \"#utility.yul\":1248:1274   */\n      swap1\n      pop\n        /* \"#utility.yul\":1284:1351   */\n      tag_143\n        /* \"#utility.yul\":1348:1349   */\n      0x00\n        /* \"#utility.yul\":1337:1346   */\n      dup4\n        /* \"#utility.yul\":1333:1350   */\n      add\n        /* \"#utility.yul\":1324:1330   */\n      dup5\n        /* \"#utility.yul\":1284:1351   */\n      tag_82\n      jump\t// in\n    tag_143:\n        /* \"#utility.yul\":1144:1358   */\n      swap3\n      swap2\n      pop\n      pop\n      jump\t// out\n        /* \"#utility.yul\":1364:1441   */\n    tag_83:\n        /* \"#utility.yul\":1401:1408   */\n      0x00\n        /* \"#utility.yul\":1430:1435   */\n      dup2\n        /* \"#utility.yul\":1419:1435   */\n      swap1\n      pop\n        /* \"#utility.yul\":1364:1441   */\n      swap2\n      swap1\n      pop\n      jump\t// out\n        /* \"#utility.yul\":1447:1569   */\n    tag_84:\n        /* \"#utility.yul\":1520:1544   */\n      tag_146\n        /* \"#utility.yul\":1538:1543   */\n      dup2\n        /* \"#utility.yul\":1520:1544   */\n      tag_83\n      jump\t// in\n    tag_146:\n        /* \"#utility.yul\":1513:1518   */\n      dup2\n        /* \"#utility.yul\":1510:1545   */\n      eq\n        /* \"#utility.yul\":1500:1563   */\n      tag_147\n      jumpi\n        /* \"#utility.yul\":1559:1560   */\n      0x00\n        /* \"#utility.yul\":1556:1557   */\n      dup1\n        /* \"#utility.yul\":1549:1561   */\n      revert\n        /* \"#utility.yul\":1500:1563   */\n    tag_147:\n        /* \"#utility.yul\":1447:1569   */\n      pop\n      jump\t// out\n        /* \"#utility.yul\":1575:1714   */\n    tag_85:\n        /* \"#utility.yul\":1621:1626   */\n      0x00\n        /* \"#utility.yul\":1659:1665   */\n      dup2\n        /* \"#utility.yul\":1646:1666   */\n      calldataload\n        /* \"#utility.yul\":1637:1666   */\n      swap1\n      pop\n        /* \"#utility.yul\":1675:1708   */\n      tag_149\n        /* \"#utility.yul\":1702:1707   */\n      dup2\n        /* \"#utility.yul\":1675:1708   */\n      tag_84\n      jump\t// in\n    tag_149:\n        /* \"#utility.yul\":1575:1714   */\n      swap3\n      swap2\n      pop\n      pop\n      jump\t// out\n        /* \"#utility.yul\":1720:2049   */\n    tag_21:\n        /* \"#utility.yul\":1779:1785   */\n      0x00\n        /* \"#utility.yul\":1828:1830   */\n      0x20\n        /* \"#utility.yul\":1816:1825   */\n      dup3\n        /* \"#utility.yul\":1807:1814   */\n      dup5\n        /* \"#utility.yul\":1803:1826   */\n      sub\n        /* \"#utility.yul\":1799:1831   */\n      slt\n        /* \"#utility.yul\":1796:1915   */\n      iszero\n      tag_151\n      jumpi\n        /* \"#utility.yul\":1834:1913   */\n      tag_152\n      tag_77\n      jump\t// in\n    tag_152:\n        /* \"#utility.yul\":1796:1915   */\n    tag_151:\n        /* \"#utility.yul\":1954:1955   */\n      0x00\n        /* \"#utility.yul\":1979:2032   */\n      tag_153\n        /* \"#utility.yul\":2024:2031   */\n      dup5\n        /* \"#utility.yul\":2015:2021   */\n      dup3\n        /* \"#utility.yul\":2004:2013   */\n      dup6\n        /* \"#utility.yul\":2000:2022   */\n      add\n        /* \"#utility.yul\":1979:2032   */\n      tag_85\n      jump\t// in\n    tag_153:\n        /* \"#utility.yul\":1969:2032   */\n      swap2\n      pop\n        /* \"#utility.yul\":1925:2042   */\n      pop\n        /* \"#utility.yul\":1720:2049   */\n      swap3\n      swap2\n      pop\n      pop\n      jump\t// out\n        /* \"#utility.yul\":2055:2154   */\n    tag_86:\n        /* \"#utility.yul\":2107:2113   */\n      0x00\n        /* \"#utility.yul\":2141:2146   */\n      dup2\n        /* \"#utility.yul\":2135:2147   */\n      mload\n        /* \"#utility.yul\":2125:2147   */\n      swap1\n      pop\n        /* \"#utility.yul\":2055:2154   */\n      swap2\n      swap1\n      pop\n      jump\t// out\n        /* \"#utility.yul\":2160:2329   */\n    tag_87:\n        /* \"#utility.yul\":2244:2255   */\n      0x00\n        /* \"#utility.yul\":2278:2284   */\n      dup3\n        /* \"#utility.yul\":2273:2276   */\n      dup3\n        /* \"#utility.yul\":2266:2285   */\n      mstore\n        /* \"#utility.yul\":2318:2322   */\n      0x20\n        /* \"#utility.yul\":2313:2316   */\n      dup3\n        /* \"#utility.yul\":2309:2323   */\n      add\n        /* \"#utility.yul\":2294:2323   */\n      swap1\n      pop\n        /* \"#utility.yul\":2160:2329   */\n      swap3\n      swap2\n      pop\n      pop\n      jump\t// out\n        /* \"#utility.yul\":2335:2474   */\n    tag_88:\n        /* \"#utility.yul\":2424:2430   */\n      dup3\n        /* \"#utility.yul\":2419:2422   */\n      dup2\n        /* \"#utility.yul\":2414:2417   */\n      dup4\n        /* \"#utility.yul\":2408:2431   */\n      mcopy\n        /* \"#utility.yul\":2465:2466   */\n      0x00\n        /* \"#utility.yul\":2456:2462   */\n      dup4\n        /* \"#utility.yul\":2451:2454   */\n      dup4\n        /* \"#utility.yul\":2447:2463   */\n      add\n        /* \"#utility.yul\":2440:2467   */\n      mstore\n        /* \"#utility.yul\":2335:2474   */\n      pop\n      pop\n      pop\n      jump\t// out\n        /* \"#utility.yul\":2480:2582   */\n    tag_89:\n        /* \"#utility.yul\":2521:2527   */\n      0x00\n        /* \"#utility.yul\":2572:2574   */\n      0x1f\n        /* \"#utility.yul\":2568:2575   */\n      not\n        /* \"#utility.yul\":2563:2565   */\n      0x1f\n        /* \"#utility.yul\":2556:2561   */\n      dup4\n        /* \"#utility.yul\":2552:2566   */\n      add\n        /* \"#utility.yul\":2548:2576   */\n      and\n        /* \"#utility.yul\":2538:2576   */\n      swap1\n      pop\n        /* \"#utility.yul\":2480:2582   */\n      swap2\n      swap1\n      pop\n      jump\t// out\n        /* \"#utility.yul\":2588:2965   */\n    tag_90:\n        /* \"#utility.yul\":2676:2679   */\n      0x00\n        /* \"#utility.yul\":2704:2743   */\n      tag_159\n        /* \"#utility.yul\":2737:2742   */\n      dup3\n        /* \"#utility.yul\":2704:2743   */\n      tag_86\n      jump\t// in\n    tag_159:\n        /* \"#utility.yul\":2759:2830   */\n      tag_160\n        /* \"#utility.yul\":2823:2829   */\n      dup2\n        /* \"#utility.yul\":2818:2821   */\n      dup6\n        /* \"#utility.yul\":2759:2830   */\n      tag_87\n      jump\t// in\n    tag_160:\n        /* \"#utility.yul\":2752:2830   */\n      swap4\n      pop\n        /* \"#utility.yul\":2839:2904   */\n      tag_161\n        /* \"#utility.yul\":2897:2903   */\n      dup2\n        /* \"#utility.yul\":2892:2895   */\n      dup6\n        /* \"#utility.yul\":2885:2889   */\n      0x20\n        /* \"#utility.yul\":2878:2883   */\n      dup7\n        /* \"#utility.yul\":2874:2890   */\n      add\n        /* \"#utility.yul\":2839:2904   */\n      tag_88\n      jump\t// in\n    tag_161:\n        /* \"#utility.yul\":2929:2958   */\n      tag_162\n        /* \"#utility.yul\":2951:2957   */\n      dup2\n        /* \"#utility.yul\":2929:2958   */\n      tag_89\n      jump\t// in\n    tag_162:\n        /* \"#utility.yul\":2924:2927   */\n      dup5\n        /* \"#utility.yul\":2920:2959   */\n      add\n        /* \"#utility.yul\":2913:2959   */\n      swap2\n      pop\n        /* \"#utility.yul\":2680:2965   */\n      pop\n        /* \"#utility.yul\":2588:2965   */\n      swap3\n      swap2\n      pop\n      pop\n      jump\t// out\n        /* \"#utility.yul\":2971:3089   */\n    tag_91:\n        /* \"#utility.yul\":3058:3082   */\n      tag_164\n        /* \"#utility.yul\":3076:3081   */\n      dup2\n        /* \"#utility.yul\":3058:3082   */\n      tag_83\n      jump\t// in\n    tag_164:\n        /* \"#utility.yul\":3053:3056   */\n      dup3\n        /* \"#utility.yul\":3046:3083   */\n      mstore\n        /* \"#utility.yul\":2971:3089   */\n      pop\n      pop\n      jump\t// out\n        /* \"#utility.yul\":3095:3518   */\n    tag_24:\n        /* \"#utility.yul\":3236:3240   */\n      0x00\n        /* \"#utility.yul\":3274:3276   */\n      0x40\n        /* \"#utility.yul\":3263:3272   */\n      dup3\n        /* \"#utility.yul\":3259:3277   */\n      add\n        /* \"#utility.yul\":3251:3277   */\n      swap1\n      pop\n        /* \"#utility.yul\":3323:3332   */\n      dup2\n        /* \"#utility.yul\":3317:3321   */\n      dup2\n        /* \"#utility.yul\":3313:3333   */\n      sub\n        /* \"#utility.yul\":3309:3310   */\n      0x00\n        /* \"#utility.yul\":3298:3307   */\n      dup4\n        /* \"#utility.yul\":3294:3311   */\n      add\n        /* \"#utility.yul\":3287:3334   */\n      mstore\n        /* \"#utility.yul\":3351:3429   */\n      tag_166\n        /* \"#utility.yul\":3424:3428   */\n      dup2\n        /* \"#utility.yul\":3415:3421   */\n      dup6\n        /* \"#utility.yul\":3351:3429   */\n      tag_90\n      jump\t// in\n    tag_166:\n        /* \"#utility.yul\":3343:3429   */\n      swap1\n      pop\n        /* \"#utility.yul\":3439:3511   */\n      tag_167\n        /* \"#utility.yul\":3507:3509   */\n      0x20\n        /* \"#utility.yul\":3496:3505   */\n      dup4\n        /* \"#utility.yul\":3492:3510   */\n      add\n        /* \"#utility.yul\":3483:3489   */\n      dup5\n        /* \"#utility.yul\":3439:3511   */\n      tag_91\n      jump\t// in\n    tag_167:\n        /* \"#utility.yul\":3095:3518   */\n      swap4\n      swap3\n      pop\n      pop\n      pop\n      jump\t// out\n        /* \"#utility.yul\":3524:3613   */\n    tag_92:\n        /* \"#utility.yul\":3560:3567   */\n      0x00\n        /* \"#utility.yul\":3600:3606   */\n      0xffff\n        /* \"#utility.yul\":3593:3598   */\n      dup3\n        /* \"#utility.yul\":3589:3607   */\n      and\n        /* \"#utility.yul\":3578:3607   */\n      swap1\n      pop\n        /* \"#utility.yul\":3524:3613   */\n      swap2\n      swap1\n      pop\n      jump\t// out\n        /* \"#utility.yul\":3619:3734   */\n    tag_93:\n        /* \"#utility.yul\":3704:3727   */\n      tag_170\n        /* \"#utility.yul\":3721:3726   */\n      dup2\n        /* \"#utility.yul\":3704:3727   */\n      tag_92\n      jump\t// in\n    tag_170:\n        /* \"#utility.yul\":3699:3702   */\n      dup3\n        /* \"#utility.yul\":3692:3728   */\n      mstore\n        /* \"#utility.yul\":3619:3734   */\n      pop\n      pop\n      jump\t// out\n        /* \"#utility.yul\":3740:3958   */\n    tag_29:\n        /* \"#utility.yul\":3831:3835   */\n      0x00\n        /* \"#utility.yul\":3869:3871   */\n      0x20\n        /* \"#utility.yul\":3858:3867   */\n      dup3\n        /* \"#utility.yul\":3854:3872   */\n      add\n        /* \"#utility.yul\":3846:3872   */\n      swap1\n      pop\n        /* \"#utility.yul\":3882:3951   */\n      tag_172\n        /* \"#utility.yul\":3948:3949   */\n      0x00\n        /* \"#utility.yul\":3937:3946   */\n      dup4\n        /* \"#utility.yul\":3933:3950   */\n      add\n        /* \"#utility.yul\":3924:3930   */\n      dup5\n        /* \"#utility.yul\":3882:3951   */\n      tag_93\n      jump\t// in\n    tag_172:\n        /* \"#utility.yul\":3740:3958   */\n      swap3\n      swap2\n      pop\n      pop\n      jump\t// out\n        /* \"#utility.yul\":3964:4090   */\n    tag_94:\n        /* \"#utility.yul\":4001:4008   */\n      0x00\n        /* \"#utility.yul\":4041:4083   */\n      0xffffffffffffffffffffffffffffffffffffffff\n        /* \"#utility.yul\":4034:4039   */\n      dup3\n        /* \"#utility.yul\":4030:4084   */\n      and\n        /* \"#utility.yul\":4019:4084   */\n      swap1\n      pop\n        /* \"#utility.yul\":3964:4090   */\n      swap2\n      swap1\n      pop\n      jump\t// out\n        /* \"#utility.yul\":4096:4192   */\n    tag_95:\n        /* \"#utility.yul\":4133:4140   */\n      0x00\n        /* \"#utility.yul\":4162:4186   */\n      tag_175\n        /* \"#utility.yul\":4180:4185   */\n      dup3\n        /* \"#utility.yul\":4162:4186   */\n      tag_94\n      jump\t// in\n    tag_175:\n        /* \"#utility.yul\":4151:4186   */\n      swap1\n      pop\n        /* \"#utility.yul\":4096:4192   */\n      swap2\n      swap1\n      pop\n      jump\t// out\n        /* \"#utility.yul\":4198:4320   */\n    tag_96:\n        /* \"#utility.yul\":4271:4295   */\n      tag_177\n        /* \"#utility.yul\":4289:4294   */\n      dup2\n        /* \"#utility.yul\":4271:4295   */\n      tag_95\n      jump\t// in\n    tag_177:\n        /* \"#utility.yul\":4264:4269   */\n      dup2\n        /* \"#utility.yul\":4261:4296   */\n      eq\n        /* \"#utility.yul\":4251:4314   */\n      tag_178\n      jumpi\n        /* \"#utility.yul\":4310:4311   */\n      0x00\n        /* \"#utility.yul\":4307:4308   */\n      dup1\n        /* \"#utility.yul\":4300:4312   */\n      revert\n        /* \"#utility.yul\":4251:4314   */\n    tag_178:\n        /* \"#utility.yul\":4198:4320   */\n      pop\n      jump\t// out\n        /* \"#utility.yul\":4326:4465   */\n    tag_97:\n        /* \"#utility.yul\":4372:4377   */\n      0x00\n        /* \"#utility.yul\":4410:4416   */\n      dup2\n        /* \"#utility.yul\":4397:4417   */\n      calldataload\n        /* \"#utility.yul\":4388:4417   */\n      swap1\n      pop\n        /* \"#utility.yul\":4426:4459   */\n      tag_180\n        /* \"#utility.yul\":4453:4458   */\n      dup2\n        /* \"#utility.yul\":4426:4459   */\n      tag_96\n      jump\t// in\n    tag_180:\n        /* \"#utility.yul\":4326:4465   */\n      swap3\n      swap2\n      pop\n      pop\n      jump\t// out\n        /* \"#utility.yul\":4471:4945   */\n    tag_32:\n        /* \"#utility.yul\":4539:4545   */\n      0x00\n        /* \"#utility.yul\":4547:4553   */\n      dup1\n        /* \"#utility.yul\":4596:4598   */\n      0x40\n        /* \"#utility.yul\":4584:4593   */\n      dup4\n        /* \"#utility.yul\":4575:4582   */\n      dup6\n        /* \"#utility.yul\":4571:4594   */\n      sub\n        /* \"#utility.yul\":4567:4599   */\n      slt\n        /* \"#utility.yul\":4564:4683   */\n      iszero\n      tag_182\n      jumpi\n        /* \"#utility.yul\":4602:4681   */\n      tag_183\n      tag_77\n      jump\t// in\n    tag_183:\n        /* \"#utility.yul\":4564:4683   */\n    tag_182:\n        /* \"#utility.yul\":4722:4723   */\n      0x00\n        /* \"#utility.yul\":4747:4800   */\n      tag_184\n        /* \"#utility.yul\":4792:4799   */\n      dup6\n        /* \"#utility.yul\":4783:4789   */\n      dup3\n        /* \"#utility.yul\":4772:4781   */\n      dup7\n        /* \"#utility.yul\":4768:4790   */\n      add\n        /* \"#utility.yul\":4747:4800   */\n      tag_97\n      jump\t// in\n    tag_184:\n        /* \"#utility.yul\":4737:4800   */\n      swap3\n      pop\n        /* \"#utility.yul\":4693:4810   */\n      pop\n        /* \"#utility.yul\":4849:4851   */\n      0x20\n        /* \"#utility.yul\":4875:4928   */\n      tag_185\n        /* \"#utility.yul\":4920:4927   */\n      dup6\n        /* \"#utility.yul\":4911:4917   */\n      dup3\n        /* \"#utility.yul\":4900:4909   */\n      dup7\n        /* \"#utility.yul\":4896:4918   */\n      add\n        /* \"#utility.yul\":4875:4928   */\n      tag_85\n      jump\t// in\n    tag_185:\n        /* \"#utility.yul\":4865:4928   */\n      swap2\n      pop\n        /* \"#utility.yul\":4820:4938   */\n      pop\n        /* \"#utility.yul\":4471:4945   */\n      swap3\n      pop\n      swap3\n      swap1\n      pop\n      jump\t// out\n        /* \"#utility.yul\":4951:5280   */\n    tag_42:\n        /* \"#utility.yul\":5010:5016   */\n      0x00\n        /* \"#utility.yul\":5059:5061   */\n      0x20\n        /* \"#utility.yul\":5047:5056   */\n      dup3\n        /* \"#utility.yul\":5038:5045   */\n      dup5\n        /* \"#utility.yul\":5034:5057   */\n      sub\n        /* \"#utility.yul\":5030:5062   */\n      slt\n        /* \"#utility.yul\":5027:5146   */\n      iszero\n      tag_187\n      jumpi\n        /* \"#utility.yul\":5065:5144   */\n      tag_188\n      tag_77\n      jump\t// in\n    tag_188:\n        /* \"#utility.yul\":5027:5146   */\n    tag_187:\n        /* \"#utility.yul\":5185:5186   */\n      0x00\n        /* \"#utility.yul\":5210:5263   */\n      tag_189\n        /* \"#utility.yul\":5255:5262   */\n      dup5\n        /* \"#utility.yul\":5246:5252   */\n      dup3\n        /* \"#utility.yul\":5235:5244   */\n      dup6\n        /* \"#utility.yul\":5231:5253   */\n      add\n        /* \"#utility.yul\":5210:5263   */\n      tag_97\n      jump\t// in\n    tag_189:\n        /* \"#utility.yul\":5200:5263   */\n      swap2\n      pop\n        /* \"#utility.yul\":5156:5273   */\n      pop\n        /* \"#utility.yul\":4951:5280   */\n      swap3\n      swap2\n      pop\n      pop\n      jump\t// out\n        /* \"#utility.yul\":5286:5508   */\n    tag_45:\n        /* \"#utility.yul\":5379:5383   */\n      0x00\n        /* \"#utility.yul\":5417:5419   */\n      0x20\n        /* \"#utility.yul\":5406:5415   */\n      dup3\n        /* \"#utility.yul\":5402:5420   */\n      add\n        /* \"#utility.yul\":5394:5420   */\n      swap1\n      pop\n        /* \"#utility.yul\":5430:5501   */\n      tag_191\n        /* \"#utility.yul\":5498:5499   */\n      0x00\n        /* \"#utility.yul\":5487:5496   */\n      dup4\n        /* \"#utility.yul\":5483:5500   */\n      add\n        /* \"#utility.yul\":5474:5480   */\n      dup5\n        /* \"#utility.yul\":5430:5501   */\n      tag_91\n      jump\t// in\n    tag_191:\n        /* \"#utility.yul\":5286:5508   */\n      swap3\n      swap2\n      pop\n      pop\n      jump\t// out\n        /* \"#utility.yul\":5514:5631   */\n    tag_98:\n        /* \"#utility.yul\":5623:5624   */\n      0x00\n        /* \"#utility.yul\":5620:5621   */\n      dup1\n        /* \"#utility.yul\":5613:5625   */\n      revert\n        /* \"#utility.yul\":5637:5754   */\n    tag_99:\n        /* \"#utility.yul\":5746:5747   */\n      0x00\n        /* \"#utility.yul\":5743:5744   */\n      dup1\n        /* \"#utility.yul\":5736:5748   */\n      revert\n        /* \"#utility.yul\":5760:5940   */\n    tag_100:\n        /* \"#utility.yul\":5808:5885   */\n      0x4e487b7100000000000000000000000000000000000000000000000000000000\n        /* \"#utility.yul\":5805:5806   */\n      0x00\n        /* \"#utility.yul\":5798:5886   */\n      mstore\n        /* \"#utility.yul\":5905:5909   */\n      0x41\n        /* \"#utility.yul\":5902:5903   */\n      0x04\n        /* \"#utility.yul\":5895:5910   */\n      mstore\n        /* \"#utility.yul\":5929:5933   */\n      0x24\n        /* \"#utility.yul\":5926:5927   */\n      0x00\n        /* \"#utility.yul\":5919:5934   */\n      revert\n        /* \"#utility.yul\":5946:6227   */\n    tag_101:\n        /* \"#utility.yul\":6029:6056   */\n      tag_196\n        /* \"#utility.yul\":6051:6055   */\n      dup3\n        /* \"#utility.yul\":6029:6056   */\n      tag_89\n      jump\t// in\n    tag_196:\n        /* \"#utility.yul\":6021:6027   */\n      dup2\n        /* \"#utility.yul\":6017:6057   */\n      add\n        /* \"#utility.yul\":6159:6165   */\n      dup2\n        /* \"#utility.yul\":6147:6157   */\n      dup2\n        /* \"#utility.yul\":6144:6166   */\n      lt\n        /* \"#utility.yul\":6123:6141   */\n      0xffffffffffffffff\n        /* \"#utility.yul\":6111:6121   */\n      dup3\n        /* \"#utility.yul\":6108:6142   */\n      gt\n        /* \"#utility.yul\":6105:6167   */\n      or\n        /* \"#utility.yul\":6102:6190   */\n      iszero\n      tag_197\n      jumpi\n        /* \"#utility.yul\":6170:6188   */\n      tag_198\n      tag_100\n      jump\t// in\n    tag_198:\n        /* \"#utility.yul\":6102:6190   */\n    tag_197:\n        /* \"#utility.yul\":6210:6220   */\n      dup1\n        /* \"#utility.yul\":6206:6208   */\n      0x40\n        /* \"#utility.yul\":6199:6221   */\n      mstore\n        /* \"#utility.yul\":5989:6227   */\n      pop\n        /* \"#utility.yul\":5946:6227   */\n      pop\n      pop\n      jump\t// out\n        /* \"#utility.yul\":6233:6362   */\n    tag_102:\n        /* \"#utility.yul\":6267:6273   */\n      0x00\n        /* \"#utility.yul\":6294:6314   */\n      tag_200\n      tag_76\n      jump\t// in\n    tag_200:\n        /* \"#utility.yul\":6284:6314   */\n      swap1\n      pop\n        /* \"#utility.yul\":6323:6356   */\n      tag_201\n        /* \"#utility.yul\":6351:6355   */\n      dup3\n        /* \"#utility.yul\":6343:6349   */\n      dup3\n        /* \"#utility.yul\":6323:6356   */\n      tag_101\n      jump\t// in\n    tag_201:\n        /* \"#utility.yul\":6233:6362   */\n      swap2\n      swap1\n      pop\n      jump\t// out\n        /* \"#utility.yul\":6368:6676   */\n    tag_103:\n        /* \"#utility.yul\":6430:6434   */\n      0x00\n        /* \"#utility.yul\":6520:6538   */\n      0xffffffffffffffff\n        /* \"#utility.yul\":6512:6518   */\n      dup3\n        /* \"#utility.yul\":6509:6539   */\n      gt\n        /* \"#utility.yul\":6506:6562   */\n      iszero\n      tag_203\n      jumpi\n        /* \"#utility.yul\":6542:6560   */\n      tag_204\n      tag_100\n      jump\t// in\n    tag_204:\n        /* \"#utility.yul\":6506:6562   */\n    tag_203:\n        /* \"#utility.yul\":6580:6609   */\n      tag_205\n        /* \"#utility.yul\":6602:6608   */\n      dup3\n        /* \"#utility.yul\":6580:6609   */\n      tag_89\n      jump\t// in\n    tag_205:\n        /* \"#utility.yul\":6572:6609   */\n      swap1\n      pop\n        /* \"#utility.yul\":6664:6668   */\n      0x20\n        /* \"#utility.yul\":6658:6662   */\n      dup2\n        /* \"#utility.yul\":6654:6669   */\n      add\n        /* \"#utility.yul\":6646:6669   */\n      swap1\n      pop\n        /* \"#utility.yul\":6368:6676   */\n      swap2\n      swap1\n      pop\n      jump\t// out\n        /* \"#utility.yul\":6682:6830   */\n    tag_104:\n        /* \"#utility.yul\":6780:6786   */\n      dup3\n        /* \"#utility.yul\":6775:6778   */\n      dup2\n        /* \"#utility.yul\":6770:6773   */\n      dup4\n        /* \"#utility.yul\":6757:6787   */\n      calldatacopy\n        /* \"#utility.yul\":6821:6822   */\n      0x00\n        /* \"#utility.yul\":6812:6818   */\n      dup4\n        /* \"#utility.yul\":6807:6810   */\n      dup4\n        /* \"#utility.yul\":6803:6819   */\n      add\n        /* \"#utility.yul\":6796:6823   */\n      mstore\n        /* \"#utility.yul\":6682:6830   */\n      pop\n      pop\n      pop\n      jump\t// out\n        /* \"#utility.yul\":6836:7261   */\n    tag_105:\n        /* \"#utility.yul\":6914:6919   */\n      0x00\n        /* \"#utility.yul\":6939:7005   */\n      tag_208\n        /* \"#utility.yul\":6955:7004   */\n      tag_209\n        /* \"#utility.yul\":6997:7003   */\n      dup5\n        /* \"#utility.yul\":6955:7004   */\n      tag_103\n      jump\t// in\n    tag_209:\n        /* \"#utility.yul\":6939:7005   */\n      tag_102\n      jump\t// in\n    tag_208:\n        /* \"#utility.yul\":6930:7005   */\n      swap1\n      pop\n        /* \"#utility.yul\":7028:7034   */\n      dup3\n        /* \"#utility.yul\":7021:7026   */\n      dup2\n        /* \"#utility.yul\":7014:7035   */\n      mstore\n        /* \"#utility.yul\":7066:7070   */\n      0x20\n        /* \"#utility.yul\":7059:7064   */\n      dup2\n        /* \"#utility.yul\":7055:7071   */\n      add\n        /* \"#utility.yul\":7104:7107   */\n      dup5\n        /* \"#utility.yul\":7095:7101   */\n      dup5\n        /* \"#utility.yul\":7090:7093   */\n      dup5\n        /* \"#utility.yul\":7086:7102   */\n      add\n        /* \"#utility.yul\":7083:7108   */\n      gt\n        /* \"#utility.yul\":7080:7192   */\n      iszero\n      tag_210\n      jumpi\n        /* \"#utility.yul\":7111:7190   */\n      tag_211\n      tag_99\n      jump\t// in\n    tag_211:\n        /* \"#utility.yul\":7080:7192   */\n    tag_210:\n        /* \"#utility.yul\":7201:7255   */\n      tag_212\n        /* \"#utility.yul\":7248:7254   */\n      dup5\n        /* \"#utility.yul\":7243:7246   */\n      dup3\n        /* \"#utility.yul\":7238:7241   */\n      dup6\n        /* \"#utility.yul\":7201:7255   */\n      tag_104\n      jump\t// in\n    tag_212:\n        /* \"#utility.yul\":6920:7261   */\n      pop\n        /* \"#utility.yul\":6836:7261   */\n      swap4\n      swap3\n      pop\n      pop\n      pop\n      jump\t// out\n        /* \"#utility.yul\":7281:7621   */\n    tag_106:\n        /* \"#utility.yul\":7337:7342   */\n      0x00\n        /* \"#utility.yul\":7386:7389   */\n      dup3\n        /* \"#utility.yul\":7379:7383   */\n      0x1f\n        /* \"#utility.yul\":7371:7377   */\n      dup4\n        /* \"#utility.yul\":7367:7384   */\n      add\n        /* \"#utility.yul\":7363:7390   */\n      slt\n        /* \"#utility.yul\":7353:7475   */\n      tag_214\n      jumpi\n        /* \"#utility.yul\":7394:7473   */\n      tag_215\n      tag_98\n      jump\t// in\n    tag_215:\n        /* \"#utility.yul\":7353:7475   */\n    tag_214:\n        /* \"#utility.yul\":7511:7517   */\n      dup2\n        /* \"#utility.yul\":7498:7518   */\n      calldataload\n        /* \"#utility.yul\":7536:7615   */\n      tag_216\n        /* \"#utility.yul\":7611:7614   */\n      dup5\n        /* \"#utility.yul\":7603:7609   */\n      dup3\n        /* \"#utility.yul\":7596:7600   */\n      0x20\n        /* \"#utility.yul\":7588:7594   */\n      dup7\n        /* \"#utility.yul\":7584:7601   */\n      add\n        /* \"#utility.yul\":7536:7615   */\n      tag_105\n      jump\t// in\n    tag_216:\n        /* \"#utility.yul\":7527:7615   */\n      swap2\n      pop\n        /* \"#utility.yul\":7343:7621   */\n      pop\n        /* \"#utility.yul\":7281:7621   */\n      swap3\n      swap2\n      pop\n      pop\n      jump\t// out\n        /* \"#utility.yul\":7627:8281   */\n    tag_48:\n        /* \"#utility.yul\":7705:7711   */\n      0x00\n        /* \"#utility.yul\":7713:7719   */\n      dup1\n        /* \"#utility.yul\":7762:7764   */\n      0x40\n        /* \"#utility.yul\":7750:7759   */\n      dup4\n        /* \"#utility.yul\":7741:7748   */\n      dup6\n        /* \"#utility.yul\":7737:7760   */\n      sub\n        /* \"#utility.yul\":7733:7765   */\n      slt\n        /* \"#utility.yul\":7730:7849   */\n      iszero\n      tag_218\n      jumpi\n        /* \"#utility.yul\":7768:7847   */\n      tag_219\n      tag_77\n      jump\t// in\n    tag_219:\n        /* \"#utility.yul\":7730:7849   */\n    tag_218:\n        /* \"#utility.yul\":7916:7917   */\n      0x00\n        /* \"#utility.yul\":7905:7914   */\n      dup4\n        /* \"#utility.yul\":7901:7918   */\n      add\n        /* \"#utility.yul\":7888:7919   */\n      calldataload\n        /* \"#utility.yul\":7946:7964   */\n      0xffffffffffffffff\n        /* \"#utility.yul\":7938:7944   */\n      dup2\n        /* \"#utility.yul\":7935:7965   */\n      gt\n        /* \"#utility.yul\":7932:8049   */\n      iszero\n      tag_220\n      jumpi\n        /* \"#utility.yul\":7968:8047   */\n      tag_221\n      tag_78\n      jump\t// in\n    tag_221:\n        /* \"#utility.yul\":7932:8049   */\n    tag_220:\n        /* \"#utility.yul\":8073:8136   */\n      tag_222\n        /* \"#utility.yul\":8128:8135   */\n      dup6\n        /* \"#utility.yul\":8119:8125   */\n      dup3\n        /* \"#utility.yul\":8108:8117   */\n      dup7\n        /* \"#utility.yul\":8104:8126   */\n      add\n        /* \"#utility.yul\":8073:8136   */\n      tag_106\n      jump\t// in\n    tag_222:\n        /* \"#utility.yul\":8063:8136   */\n      swap3\n      pop\n        /* \"#utility.yul\":7859:8146   */\n      pop\n        /* \"#utility.yul\":8185:8187   */\n      0x20\n        /* \"#utility.yul\":8211:8264   */\n      tag_223\n        /* \"#utility.yul\":8256:8263   */\n      dup6\n        /* \"#utility.yul\":8247:8253   */\n      dup3\n        /* \"#utility.yul\":8236:8245   */\n      dup7\n        /* \"#utility.yul\":8232:8254   */\n      add\n        /* \"#utility.yul\":8211:8264   */\n      tag_85\n      jump\t// in\n    tag_223:\n        /* \"#utility.yul\":8201:8264   */\n      swap2\n      pop\n        /* \"#utility.yul\":8156:8274   */\n      pop\n        /* \"#utility.yul\":7627:8281   */\n      swap3\n      pop\n      swap3\n      swap1\n      pop\n      jump\t// out\n        /* \"#utility.yul\":8287:8407   */\n    tag_107:\n        /* \"#utility.yul\":8359:8382   */\n      tag_225\n        /* \"#utility.yul\":8376:8381   */\n      dup2\n        /* \"#utility.yul\":8359:8382   */\n      tag_92\n      jump\t// in\n    tag_225:\n        /* \"#utility.yul\":8352:8357   */\n      dup2\n        /* \"#utility.yul\":8349:8383   */\n      eq\n        /* \"#utility.yul\":8339:8401   */\n      tag_226\n      jumpi\n        /* \"#utility.yul\":8397:8398   */\n      0x00\n        /* \"#utility.yul\":8394:8395   */\n      dup1\n        /* \"#utility.yul\":8387:8399   */\n      revert\n        /* \"#utility.yul\":8339:8401   */\n    tag_226:\n        /* \"#utility.yul\":8287:8407   */\n      pop\n      jump\t// out\n        /* \"#utility.yul\":8413:8550   */\n    tag_108:\n        /* \"#utility.yul\":8458:8463   */\n      0x00\n        /* \"#utility.yul\":8496:8502   */\n      dup2\n        /* \"#utility.yul\":8483:8503   */\n      calldataload\n        /* \"#utility.yul\":8474:8503   */\n      swap1\n      pop\n        /* \"#utility.yul\":8512:8544   */\n      tag_228\n        /* \"#utility.yul\":8538:8543   */\n      dup2\n        /* \"#utility.yul\":8512:8544   */\n      tag_107\n      jump\t// in\n    tag_228:\n        /* \"#utility.yul\":8413:8550   */\n      swap3\n      swap2\n      pop\n      pop\n      jump\t// out\n        /* \"#utility.yul\":8556:8883   */\n    tag_52:\n        /* \"#utility.yul\":8614:8620   */\n      0x00\n        /* \"#utility.yul\":8663:8665   */\n      0x20\n        /* \"#utility.yul\":8651:8660   */\n      dup3\n        /* \"#utility.yul\":8642:8649   */\n      dup5\n        /* \"#utility.yul\":8638:8661   */\n      sub\n        /* \"#utility.yul\":8634:8666   */\n      slt\n        /* \"#utility.yul\":8631:8750   */\n      iszero\n      tag_230\n      jumpi\n        /* \"#utility.yul\":8669:8748   */\n      tag_231\n      tag_77\n      jump\t// in\n    tag_231:\n        /* \"#utility.yul\":8631:8750   */\n    tag_230:\n        /* \"#utility.yul\":8789:8790   */\n      0x00\n        /* \"#utility.yul\":8814:8866   */\n      tag_232\n        /* \"#utility.yul\":8858:8865   */\n      dup5\n        /* \"#utility.yul\":8849:8855   */\n      dup3\n        /* \"#utility.yul\":8838:8847   */\n      dup6\n        /* \"#utility.yul\":8834:8856   */\n      add\n        /* \"#utility.yul\":8814:8866   */\n      tag_108\n      jump\t// in\n    tag_232:\n        /* \"#utility.yul\":8804:8866   */\n      swap2\n      pop\n        /* \"#utility.yul\":8760:8876   */\n      pop\n        /* \"#utility.yul\":8556:8883   */\n      swap3\n      swap2\n      pop\n      pop\n      jump\t// out\n        /* \"#utility.yul\":8889:9069   */\n    tag_109:\n        /* \"#utility.yul\":8937:9014   */\n      0x4e487b7100000000000000000000000000000000000000000000000000000000\n        /* \"#utility.yul\":8934:8935   */\n      0x00\n        /* \"#utility.yul\":8927:9015   */\n      mstore\n        /* \"#utility.yul\":9034:9038   */\n      0x11\n        /* \"#utility.yul\":9031:9032   */\n      0x04\n        /* \"#utility.yul\":9024:9039   */\n      mstore\n        /* \"#utility.yul\":9058:9062   */\n      0x24\n        /* \"#utility.yul\":9055:9056   */\n      0x00\n        /* \"#utility.yul\":9048:9063   */\n      revert\n        /* \"#utility.yul\":9075:9346   */\n    tag_56:\n        /* \"#utility.yul\":9113:9120   */\n      0x00\n        /* \"#utility.yul\":9136:9154   */\n      tag_235\n        /* \"#utility.yul\":9152:9153   */\n      dup3\n        /* \"#utility.yul\":9136:9154   */\n      tag_79\n      jump\t// in\n    tag_235:\n        /* \"#utility.yul\":9131:9154   */\n      swap2\n      pop\n        /* \"#utility.yul\":9168:9186   */\n      tag_236\n        /* \"#utility.yul\":9184:9185   */\n      dup4\n        /* \"#utility.yul\":9168:9186   */\n      tag_79\n      jump\t// in\n    tag_236:\n        /* \"#utility.yul\":9163:9186   */\n      swap3\n      pop\n        /* \"#utility.yul\":9221:9222   */\n      dup3\n        /* \"#utility.yul\":9218:9219   */\n      dup3\n        /* \"#utility.yul\":9214:9223   */\n      mul\n        /* \"#utility.yul\":9243:9271   */\n      tag_237\n        /* \"#utility.yul\":9259:9270   */\n      dup2\n        /* \"#utility.yul\":9243:9271   */\n      tag_79\n      jump\t// in\n    tag_237:\n        /* \"#utility.yul\":9232:9271   */\n      swap2\n      pop\n        /* \"#utility.yul\":9303:9314   */\n      dup1\n        /* \"#utility.yul\":9294:9301   */\n      dup3\n        /* \"#utility.yul\":9291:9315   */\n      eq\n        /* \"#utility.yul\":9281:9339   */\n      tag_238\n      jumpi\n        /* \"#utility.yul\":9319:9337   */\n      tag_239\n      tag_109\n      jump\t// in\n    tag_239:\n        /* \"#utility.yul\":9281:9339   */\n    tag_238:\n        /* \"#utility.yul\":9121:9346   */\n      pop\n        /* \"#utility.yul\":9075:9346   */\n      swap3\n      swap2\n      pop\n      pop\n      jump\t// out\n        /* \"#utility.yul\":9352:9532   */\n    tag_110:\n        /* \"#utility.yul\":9400:9477   */\n      0x4e487b7100000000000000000000000000000000000000000000000000000000\n        /* \"#utility.yul\":9397:9398   */\n      0x00\n        /* \"#utility.yul\":9390:9478   */\n      mstore\n        /* \"#utility.yul\":9497:9501   */\n      0x22\n        /* \"#utility.yul\":9494:9495   */\n      0x04\n        /* \"#utility.yul\":9487:9502   */\n      mstore\n        /* \"#utility.yul\":9521:9525   */\n      0x24\n        /* \"#utility.yul\":9518:9519   */\n      0x00\n        /* \"#utility.yul\":9511:9526   */\n      revert\n        /* \"#utility.yul\":9538:9858   */\n    tag_60:\n        /* \"#utility.yul\":9582:9588   */\n      0x00\n        /* \"#utility.yul\":9619:9620   */\n      0x02\n        /* \"#utility.yul\":9613:9617   */\n      dup3\n        /* \"#utility.yul\":9609:9621   */\n      div\n        /* \"#utility.yul\":9599:9621   */\n      swap1\n      pop\n        /* \"#utility.yul\":9666:9667   */\n      0x01\n        /* \"#utility.yul\":9660:9664   */\n      dup3\n        /* \"#utility.yul\":9656:9668   */\n      and\n        /* \"#utility.yul\":9687:9705   */\n      dup1\n        /* \"#utility.yul\":9677:9758   */\n      tag_242\n      jumpi\n        /* \"#utility.yul\":9743:9747   */\n      0x7f\n        /* \"#utility.yul\":9735:9741   */\n      dup3\n        /* \"#utility.yul\":9731:9748   */\n      and\n        /* \"#utility.yul\":9721:9748   */\n      swap2\n      pop\n        /* \"#utility.yul\":9677:9758   */\n    tag_242:\n        /* \"#utility.yul\":9805:9807   */\n      0x20\n        /* \"#utility.yul\":9797:9803   */\n      dup3\n        /* \"#utility.yul\":9794:9808   */\n      lt\n        /* \"#utility.yul\":9774:9792   */\n      dup2\n        /* \"#utility.yul\":9771:9809   */\n      sub\n        /* \"#utility.yul\":9768:9852   */\n      tag_243\n      jumpi\n        /* \"#utility.yul\":9824:9842   */\n      tag_244\n      tag_110\n      jump\t// in\n    tag_244:\n        /* \"#utility.yul\":9768:9852   */\n    tag_243:\n        /* \"#utility.yul\":9589:9858   */\n      pop\n        /* \"#utility.yul\":9538:9858   */\n      swap2\n      swap1\n      pop\n      jump\t// out\n        /* \"#utility.yul\":9864:10005   */\n    tag_111:\n        /* \"#utility.yul\":9913:9917   */\n      0x00\n        /* \"#utility.yul\":9936:9939   */\n      dup2\n        /* \"#utility.yul\":9928:9939   */\n      swap1\n      pop\n        /* \"#utility.yul\":9959:9962   */\n      dup2\n        /* \"#utility.yul\":9956:9957   */\n      0x00\n        /* \"#utility.yul\":9949:9963   */\n      mstore\n        /* \"#utility.yul\":9993:9997   */\n      0x20\n        /* \"#utility.yul\":9990:9991   */\n      0x00\n        /* \"#utility.yul\":9980:9998   */\n      keccak256\n        /* \"#utility.yul\":9972:9998   */\n      swap1\n      pop\n        /* \"#utility.yul\":9864:10005   */\n      swap2\n      swap1\n      pop\n      jump\t// out\n        /* \"#utility.yul\":10011:10104   */\n    tag_112:\n        /* \"#utility.yul\":10048:10054   */\n      0x00\n        /* \"#utility.yul\":10095:10097   */\n      0x20\n        /* \"#utility.yul\":10090:10092   */\n      0x1f\n        /* \"#utility.yul\":10083:10088   */\n      dup4\n        /* \"#utility.yul\":10079:10093   */\n      add\n        /* \"#utility.yul\":10075:10098   */\n      div\n        /* \"#utility.yul\":10065:10098   */\n      swap1\n      pop\n        /* \"#utility.yul\":10011:10104   */\n      swap2\n      swap1\n      pop\n      jump\t// out\n        /* \"#utility.yul\":10110:10217   */\n    tag_113:\n        /* \"#utility.yul\":10154:10162   */\n      0x00\n        /* \"#utility.yul\":10204:10209   */\n      dup3\n        /* \"#utility.yul\":10198:10202   */\n      dup3\n        /* \"#utility.yul\":10194:10210   */\n      shl\n        /* \"#utility.yul\":10173:10210   */\n      swap1\n      pop\n        /* \"#utility.yul\":10110:10217   */\n      swap3\n      swap2\n      pop\n      pop\n      jump\t// out\n        /* \"#utility.yul\":10223:10616   */\n    tag_114:\n        /* \"#utility.yul\":10292:10298   */\n      0x00\n        /* \"#utility.yul\":10342:10343   */\n      0x08\n        /* \"#utility.yul\":10330:10340   */\n      dup4\n        /* \"#utility.yul\":10326:10344   */\n      mul\n        /* \"#utility.yul\":10365:10462   */\n      tag_249\n        /* \"#utility.yul\":10395:10461   */\n      0xffffffffffffffffffffffffffffffffffffffffffffffffffffffffffffffff\n        /* \"#utility.yul\":10384:10393   */\n      dup3\n        /* \"#utility.yul\":10365:10462   */\n      tag_113\n      jump\t// in\n    tag_249:\n        /* \"#utility.yul\":10483:10522   */\n      tag_250\n        /* \"#utility.yul\":10513:10521   */\n      dup7\n        /* \"#utility.yul\":10502:10511   */\n      dup4\n        /* \"#utility.yul\":10483:10522   */\n      tag_113\n      jump\t// in\n    tag_250:\n        /* \"#utility.yul\":10471:10522   */\n      swap6\n      pop\n        /* \"#utility.yul\":10555:10559   */\n      dup1\n        /* \"#utility.yul\":10551:10560   */\n      not\n        /* \"#utility.yul\":10544:10549   */\n      dup5\n        /* \"#utility.yul\":10540:10561   */\n      and\n        /* \"#utility.yul\":10531:10561   */\n      swap4\n      pop\n        /* \"#utility.yul\":10604:10608   */\n      dup1\n        /* \"#utility.yul\":10594:10602   */\n      dup7\n        /* \"#utility.yul\":10590:10609   */\n      and\n        /* \"#utility.yul\":10583:10588   */\n      dup5\n        /* \"#utility.yul\":10580:10610   */\n      or\n        /* \"#utility.yul\":10570:10610   */\n      swap3\n      pop\n        /* \"#utility.yul\":10299:10616   */\n      pop\n      pop\n        /* \"#utility.yul\":10223:10616   */\n      swap4\n      swap3\n      pop\n      pop\n      pop\n      jump\t// out\n        /* \"#utility.yul\":10622:10682   */\n    tag_115:\n        /* \"#utility.yul\":10650:10653   */\n      0x00\n        /* \"#utility.yul\":10671:10676   */\n      dup2\n        /* \"#utility.yul\":10664:10676   */\n      swap1\n      pop\n        /* \"#utility.yul\":10622:10682   */\n      swap2\n      swap1\n      pop\n      jump\t// out\n        /* \"#utility.yul\":10688:10830   */\n    tag_116:\n        /* \"#utility.yul\":10738:10747   */\n      0x00\n        /* \"#utility.yul\":10771:10824   */\n      tag_253\n        /* \"#utility.yul\":10789:10823   */\n      tag_254\n        /* \"#utility.yul\":10798:10822   */\n      tag_255\n        /* \"#utility.yul\":10816:10821   */\n      dup5\n        /* \"#utility.yul\":10798:10822   */\n      tag_83\n      jump\t// in\n    tag_255:\n        /* \"#utility.yul\":10789:10823   */\n      tag_115\n      jump\t// in\n    tag_254:\n        /* \"#utility.yul\":10771:10824   */\n      tag_83\n      jump\t// in\n    tag_253:\n        /* \"#utility.yul\":10758:10824   */\n      swap1\n      pop\n        /* \"#utility.yul\":10688:10830   */\n      swap2\n      swap1\n      pop\n      jump\t// out\n        /* \"#utility.yul\":10836:10911   */\n    tag_117:\n        /* \"#utility.yul\":10879:10882   */\n      0x00\n        /* \"#utility.yul\":10900:10905   */\n      dup2\n        /* \"#utility.yul\":10893:10905   */\n      swap1\n      pop\n        /* \"#utility.yul\":10836:10911   */\n      swap2\n      swap1\n      pop\n      jump\t// out\n        /* \"#utility.yul\":10917:11186   */\n    tag_118:\n        /* \"#utility.yul\":11027:11066   */\n      tag_258\n        /* \"#utility.yul\":11058:11065   */\n      dup4\n        /* \"#utility.yul\":11027:11066   */\n      tag_116\n      jump\t// in\n    tag_258:\n        /* \"#utility.yul\":11088:11179   */\n      tag_259\n        /* \"#utility.yul\":11137:11178   */\n      tag_260\n        /* \"#utility.yul\":11161:11177   */\n      dup3\n        /* \"#utility.yul\":11137:11178   */\n      tag_117\n      jump\t// in\n    tag_260:\n        /* \"#utility.yul\":11129:11135   */\n      dup5\n        /* \"#utility.yul\":11122:11126   */\n      dup5\n        /* \"#utility.yul\":11116:11127   */\n      sload\n        /* \"#utility.yul\":11088:11179   */\n      tag_114\n      jump\t// in\n    tag_259:\n        /* \"#utility.yul\":11082:11086   */\n      dup3\n        /* \"#utility.yul\":11075:11180   */\n      sstore\n        /* \"#utility.yul\":10993:11186   */\n      pop\n        /* \"#utility.yul\":10917:11186   */\n      pop\n      pop\n      pop\n      jump\t// out\n        /* \"#utility.yul\":11192:11265   */\n    tag_119:\n        /* \"#utility.yul\":11237:11240   */\n      0x00\n        /* \"#utility.yul\":11192:11265   */\n      swap1\n      jump\t// out\n        /* \"#utility.yul\":11271:11460   */\n    tag_120:\n        /* \"#utility.yul\":11348:11380   */\n      tag_263\n      tag_119\n      jump\t// in\n    tag_263:\n        /* \"#utility.yul\":11389:11454   */\n      tag_264\n        /* \"#utility.yul\":11447:11453   */\n      dup2\n        /* \"#utility.yul\":11439:11445   */\n      dup5\n        /* \"#utility.yul\":11433:11437   */\n      dup5\n        /* \"#utility.yul\":11389:11454   */\n      tag_118\n      jump\t// in\n    tag_264:\n        /* \"#utility.yul\":11324:11460   */\n      pop\n        /* \"#utility.yul\":11271:11460   */\n      pop\n      pop\n      jump\t// out\n        /* \"#utility.yul\":11466:11652   */\n    tag_121:\n        /* \"#utility.yul\":11526:11646   */\n    tag_266:\n        /* \"#utility.yul\":11543:11546   */\n      dup2\n        /* \"#utility.yul\":11536:11541   */\n      dup2\n        /* \"#utility.yul\":11533:11547   */\n      lt\n        /* \"#utility.yul\":11526:11646   */\n      iszero\n      tag_268\n      jumpi\n        /* \"#utility.yul\":11597:11636   */\n      tag_269\n        /* \"#utility.yul\":11634:11635   */\n      0x00\n        /* \"#utility.yul\":11627:11632   */\n      dup3\n        /* \"#utility.yul\":11597:11636   */\n      tag_120\n      jump\t// in\n    tag_269:\n        /* \"#utility.yul\":11570:11571   */\n      0x01\n        /* \"#utility.yul\":11563:11568   */\n      dup2\n        /* \"#utility.yul\":11559:11572   */\n      add\n        /* \"#utility.yul\":11550:11572   */\n      swap1\n      pop\n        /* \"#utility.yul\":11526:11646   */\n      jump(tag_266)\n    tag_268:\n        /* \"#utility.yul\":11466:11652   */\n      pop\n      pop\n      jump\t// out\n        /* \"#utility.yul\":11658:12201   */\n    tag_122:\n        /* \"#utility.yul\":11759:11761   */\n      0x1f\n        /* \"#utility.yul\":11754:11757   */\n      dup3\n        /* \"#utility.yul\":11751:11762   */\n      gt\n        /* \"#utility.yul\":11748:12194   */\n      iszero\n      tag_271\n      jumpi\n        /* \"#utility.yul\":11793:11831   */\n      tag_272\n        /* \"#utility.yul\":11825:11830   */\n      dup2\n        /* \"#utility.yul\":11793:11831   */\n      tag_111\n      jump\t// in\n    tag_272:\n        /* \"#utility.yul\":11877:11906   */\n      tag_273\n        /* \"#utility.yul\":11895:11905   */\n      dup5\n        /* \"#utility.yul\":11877:11906   */\n      tag_112\n      jump\t// in\n    tag_273:\n        /* \"#utility.yul\":11867:11875   */\n      dup2\n        /* \"#utility.yul\":11863:11907   */\n      add\n        /* \"#utility.yul\":12060:12062   */\n      0x20\n        /* \"#utility.yul\":12048:12058   */\n      dup6\n        /* \"#utility.yul\":12045:12063   */\n      lt\n        /* \"#utility.yul\":12042:12091   */\n      iszero\n      tag_274\n      jumpi\n        /* \"#utility.yul\":12081:12089   */\n      dup2\n        /* \"#utility.yul\":12066:12089   */\n      swap1\n      pop\n        /* \"#utility.yul\":12042:12091   */\n    tag_274:\n        /* \"#utility.yul\":12104:12184   */\n      tag_275\n        /* \"#utility.yul\":12160:12182   */\n      tag_276\n        /* \"#utility.yul\":12178:12181   */\n      dup6\n        /* \"#utility.yul\":12160:12182   */\n      tag_112\n      jump\t// in\n    tag_276:\n        /* \"#utility.yul\":12150:12158   */\n      dup4\n        /* \"#utility.yul\":12146:12183   */\n      add\n        /* \"#utility.yul\":12133:12144   */\n      dup3\n        /* \"#utility.yul\":12104:12184   */\n      tag_121\n      jump\t// in\n    tag_275:\n        /* \"#utility.yul\":11763:12194   */\n      pop\n      pop\n        /* \"#utility.yul\":11748:12194   */\n    tag_271:\n        /* \"#utility.yul\":11658:12201   */\n      pop\n      pop\n      pop\n      jump\t// out\n        /* \"#utility.yul\":12207:12324   */\n    tag_123:\n        /* \"#utility.yul\":12261:12269   */\n      0x00\n        /* \"#utility.yul\":12311:12316   */\n      dup3\n        /* \"#utility.yul\":12305:12309   */\n      dup3\n        /* \"#utility.yul\":12301:12317   */\n      shr\n        /* \"#utility.yul\":12280:12317   */\n      swap1\n      pop\n        /* \"#utility.yul\":12207:12324   */\n      swap3\n      swap2\n      pop\n      pop\n      jump\t// out\n        /* \"#utility.yul\":12330:12499   */\n    tag_124:\n        /* \"#utility.yul\":12374:12380   */\n      0x00\n        /* \"#utility.yul\":12407:12458   */\n      tag_279\n        /* \"#utility.yul\":12455:12456   */\n      0x00\n        /* \"#utility.yul\":12451:12457   */\n      not\n        /* \"#utility.yul\":12443:12448   */\n      dup5\n        /* \"#utility.yul\":12440:12441   */\n      0x08\n        /* \"#utility.yul\":12436:12449   */\n      mul\n        /* \"#utility.yul\":12407:12458   */\n      tag_123\n      jump\t// in\n    tag_279:\n        /* \"#utility.yul\":12403:12459   */\n      not\n        /* \"#utility.yul\":12488:12492   */\n      dup1\n        /* \"#utility.yul\":12482:12486   */\n      dup4\n        /* \"#utility.yul\":12478:12493   */\n      and\n        /* \"#utility.yul\":12468:12493   */\n      swap2\n      pop\n        /* \"#utility.yul\":12381:12499   */\n      pop\n        /* \"#utility.yul\":12330:12499   */\n      swap3\n      swap2\n      pop\n      pop\n      jump\t// out\n        /* \"#utility.yul\":12504:12799   */\n    tag_125:\n        /* \"#utility.yul\":12580:12584   */\n      0x00\n        /* \"#utility.yul\":12726:12755   */\n      tag_281\n        /* \"#utility.yul\":12751:12754   */\n      dup4\n        /* \"#utility.yul\":12745:12749   */\n      dup4\n        /* \"#utility.yul\":12726:12755   */\n      tag_124\n      jump\t// in\n    tag_281:\n        /* \"#utility.yul\":12718:12755   */\n      swap2\n      pop\n        /* \"#utility.yul\":12788:12791   */\n      dup3\n        /* \"#utility.yul\":12785:12786   */\n      0x02\n        /* \"#utility.yul\":12781:12792   */\n      mul\n        /* \"#utility.yul\":12775:12779   */\n      dup3\n        /* \"#utility.yul\":12772:12793   */\n      or\n        /* \"#utility.yul\":12764:12793   */\n      swap1\n      pop\n        /* \"#utility.yul\":12504:12799   */\n      swap3\n      swap2\n      pop\n      pop\n      jump\t// out\n        /* \"#utility.yul\":12804:14199   */\n    tag_73:\n        /* \"#utility.yul\":12921:12958   */\n      tag_283\n        /* \"#utility.yul\":12954:12957   */\n      dup3\n        /* \"#utility.yul\":12921:12958   */\n      tag_86\n      jump\t// in\n    tag_283:\n        /* \"#utility.yul\":13023:13041   */\n      0xffffffffffffffff\n        /* \"#utility.yul\":13015:13021   */\n      dup2\n        /* \"#utility.yul\":13012:13042   */\n      gt\n        /* \"#utility.yul\":13009:13065   */\n      iszero\n      tag_284\n      jumpi\n        /* \"#utility.yul\":13045:13063   */\n      tag_285\n      tag_100\n      jump\t// in\n    tag_285:\n        /* \"#utility.yul\":13009:13065   */\n    tag_284:\n        /* \"#utility.yul\":13089:13127   */\n      tag_286\n        /* \"#utility.yul\":13121:13125   */\n      dup3\n        /* \"#utility.yul\":13115:13126   */\n      sload\n        /* \"#utility.yul\":13089:13127   */\n      tag_60\n      jump\t// in\n    tag_286:\n        /* \"#utility.yul\":13174:13241   */\n      tag_287\n        /* \"#utility.yul\":13234:13240   */\n      dup3\n        /* \"#utility.yul\":13226:13232   */\n      dup3\n        /* \"#utility.yul\":13220:13224   */\n      dup6\n        /* \"#utility.yul\":13174:13241   */\n      tag_122\n      jump\t// in\n    tag_287:\n        /* \"#utility.yul\":13268:13269   */\n      0x00\n        /* \"#utility.yul\":13292:13296   */\n      0x20\n        /* \"#utility.yul\":13279:13296   */\n      swap1\n      pop\n        /* \"#utility.yul\":13324:13326   */\n      0x1f\n        /* \"#utility.yul\":13316:13322   */\n      dup4\n        /* \"#utility.yul\":13313:13327   */\n      gt\n        /* \"#utility.yul\":13341:13342   */\n      0x01\n        /* \"#utility.yul\":13336:13954   */\n      dup2\n      eq\n      tag_289\n      jumpi\n        /* \"#utility.yul\":13998:13999   */\n      0x00\n        /* \"#utility.yul\":14015:14021   */\n      dup5\n        /* \"#utility.yul\":14012:14089   */\n      iszero\n      tag_290\n      jumpi\n        /* \"#utility.yul\":14064:14073   */\n      dup3\n        /* \"#utility.yul\":14059:14062   */\n      dup8\n        /* \"#utility.yul\":14055:14074   */\n      add\n        /* \"#utility.yul\":14049:14075   */\n      mload\n        /* \"#utility.yul\":14040:14075   */\n      swap1\n      pop\n        /* \"#utility.yul\":14012:14089   */\n    tag_290:\n        /* \"#utility.yul\":14115:14182   */\n      tag_291\n        /* \"#utility.yul\":14175:14181   */\n      dup6\n        /* \"#utility.yul\":14168:14173   */\n      dup3\n        /* \"#utility.yul\":14115:14182   */\n      tag_125\n      jump\t// in\n    tag_291:\n        /* \"#utility.yul\":14109:14113   */\n      dup7\n        /* \"#utility.yul\":14102:14183   */\n      sstore\n        /* \"#utility.yul\":13971:14193   */\n      pop\n        /* \"#utility.yul\":13306:14193   */\n      jump(tag_288)\n        /* \"#utility.yul\":13336:13954   */\n    tag_289:\n        /* \"#utility.yul\":13388:13392   */\n      0x1f\n        /* \"#utility.yul\":13384:13393   */\n      not\n        /* \"#utility.yul\":13376:13382   */\n      dup5\n        /* \"#utility.yul\":13372:13394   */\n      and\n        /* \"#utility.yul\":13422:13459   */\n      tag_292\n        /* \"#utility.yul\":13454:13458   */\n      dup7\n        /* \"#utility.yul\":13422:13459   */\n      tag_111\n      jump\t// in\n    tag_292:\n        /* \"#utility.yul\":13481:13482   */\n      0x00\n        /* \"#utility.yul\":13495:13703   */\n    tag_293:\n        /* \"#utility.yul\":13509:13516   */\n      dup3\n        /* \"#utility.yul\":13506:13507   */\n      dup2\n        /* \"#utility.yul\":13503:13517   */\n      lt\n        /* \"#utility.yul\":13495:13703   */\n      iszero\n      tag_295\n      jumpi\n        /* \"#utility.yul\":13588:13597   */\n      dup5\n        /* \"#utility.yul\":13583:13586   */\n      dup10\n        /* \"#utility.yul\":13579:13598   */\n      add\n        /* \"#utility.yul\":13573:13599   */\n      mload\n        /* \"#utility.yul\":13565:13571   */\n      dup3\n        /* \"#utility.yul\":13558:13600   */\n      sstore\n        /* \"#utility.yul\":13639:13640   */\n      0x01\n        /* \"#utility.yul\":13631:13637   */\n      dup3\n        /* \"#utility.yul\":13627:13641   */\n      add\n        /* \"#utility.yul\":13617:13641   */\n      swap2\n      pop\n        /* \"#utility.yul\":13686:13688   */\n      0x20\n        /* \"#utility.yul\":13675:13684   */\n      dup6\n        /* \"#utility.yul\":13671:13689   */\n      add\n        /* \"#utility.yul\":13658:13689   */\n      swap5\n      pop\n        /* \"#utility.yul\":13532:13536   */\n      0x20\n        /* \"#utility.yul\":13529:13530   */\n      dup2\n        /* \"#utility.yul\":13525:13537   */\n      add\n        /* \"#utility.yul\":13520:13537   */\n      swap1\n      pop\n        /* \"#utility.yul\":13495:13703   */\n      jump(tag_293)\n    tag_295:\n        /* \"#utility.yul\":13731:13737   */\n      dup7\n        /* \"#utility.yul\":13722:13729   */\n      dup4\n        /* \"#utility.yul\":13719:13738   */\n      lt\n        /* \"#utility.yul\":13716:13895   */\n      iszero\n      tag_296\n      jumpi\n        /* \"#utility.yul\":13789:13798   */\n      dup5\n        /* \"#utility.yul\":13784:13787   */\n      dup10\n        /* \"#utility.yul\":13780:13799   */\n      add\n        /* \"#utility.yul\":13774:13800   */\n      mload\n        /* \"#utility.yul\":13832:13880   */\n      tag_297\n        /* \"#utility.yul\":13874:13878   */\n      0x1f\n        /* \"#utility.yul\":13866:13872   */\n      dup10\n        /* \"#utility.yul\":13862:13879   */\n      and\n        /* \"#utility.yul\":13851:13860   */\n      dup3\n        /* \"#utility.yul\":13832:13880   */\n      tag_124\n      jump\t// in\n    tag_297:\n        /* \"#utility.yul\":13824:13830   */\n      dup4\n        /* \"#utility.yul\":13817:13881   */\n      sstore\n        /* \"#utility.yul\":13739:13895   */\n      pop\n        /* \"#utility.yul\":13716:13895   */\n    tag_296:\n        /* \"#utility.yul\":13941:13942   */\n      0x01\n        /* \"#utility.yul\":13937:13938   */\n      0x02\n        /* \"#utility.yul\":13929:13935   */\n      dup9\n        /* \"#utility.yul\":13925:13939   */\n      mul\n        /* \"#utility.yul\":13921:13943   */\n      add\n        /* \"#utility.yul\":13915:13919   */\n      dup9\n        /* \"#utility.yul\":13908:13944   */\n      sstore\n        /* \"#utility.yul\":13343:13954   */\n      pop\n      pop\n      pop\n        /* \"#utility.yul\":13306:14193   */\n    tag_288:\n      pop\n        /* \"#utility.yul\":12896:14199   */\n      pop\n      pop\n      pop\n        /* \"#utility.yul\":12804:14199   */\n      pop\n      pop\n      jump\t// out\n\n    auxdata: 0xa264697066735822122024debbf3e5cf7abda11529304268fb0215e0aa8aa752730cca228a4acefdf59364736f6c634300081a0033\n}\n",
				"bytecode": {
					"linkReferences": {},
					"object": "60806040527ffffffffffffffffffffffffffffffffffffffffffffffffffffffffffffffe0c5f806101000a81548161ffff021916908360010b61ffff16021790555060195f60026101000a81548161ffff021916908361ffff16021790555060015f60046101000a81548160ff0219169083151502179055506040518060400160405280600581526020017f4769616e67000000000000000000000000000000000000000000000000000000815250600190816100bd9190610381565b507f61363635613435393230343232663964343137653438363765666463346662386003557376c9a0eefa918d802d406b35d6b76e057a89b00460045f6101000a81548173ffffffffffffffffffffffffffffffffffffffff021916908373ffffffffffffffffffffffffffffffffffffffff160217905550348015610141575f80fd5b50610450565b5f81519050919050565b7f4e487b71000000000000000000000000000000000000000000000000000000005f52604160045260245ffd5b7f4e487b71000000000000000000000000000000000000000000000000000000005f52602260045260245ffd5b5f60028204905060018216806101c257607f821691505b6020821081036101d5576101d461017e565b5b50919050565b5f819050815f5260205f209050919050565b5f6020601f8301049050919050565b5f82821b905092915050565b5f600883026102377fffffffffffffffffffffffffffffffffffffffffffffffffffffffffffffffff826101fc565b61024186836101fc565b95508019841693508086168417925050509392505050565b5f819050919050565b5f819050919050565b5f61028561028061027b84610259565b610262565b610259565b9050919050565b5f819050919050565b61029e8361026b565b6102b26102aa8261028c565b848454610208565b825550505050565b5f90565b6102c66102ba565b6102d1818484610295565b505050565b5b818110156102f4576102e95f826102be565b6001810190506102d7565b5050565b601f8211156103395761030a816101db565b610313846101ed565b81016020851015610322578190505b61033661032e856101ed565b8301826102d6565b50505b505050565b5f82821c905092915050565b5f6103595f198460080261033e565b1980831691505092915050565b5f610371838361034a565b9150826002028217905092915050565b61038a82610147565b67ffffffffffffffff8111156103a3576103a2610151565b5b6103ad82546101ab565b6103b88282856102f8565b5f60209050601f8311600181146103e9575f84156103d7578287015190505b6103e18582610366565b865550610448565b601f1984166103f7866101db565b5f5b8281101561041e578489015182556001820191506020850194506020810190506103f9565b8683101561043b5784890151610437601f89168261034a565b8355505b6001600288020188555050505b505050505050565b610c188061045d5f395ff3fe608060405234801561000f575f80fd5b5060043610610091575f3560e01c80639654613b116100645780639654613b1461014257806398e1b4101461015e5780639b9ff3fe1461017c578063da9c2b6b146101ac578063e5140521146101c857610091565b8063122d232b1461009557806372716b25146100c557806381c60603146100f6578063877e363014610126575b5f80fd5b6100af60048036038101906100aa9190610466565b6101e4565b6040516100bc91906104a0565b60405180910390f35b6100df60048036038101906100da91906104ec565b6101f9565b6040516100ed929190610596565b60405180910390f35b610110600480360381019061010b91906104ec565b6102ae565b60405161011d91906105e0565b60405180910390f35b610140600480360381019061013b9190610653565b6102e3565b005b61015c60048036038101906101579190610466565b610329565b005b61016661034a565b60405161017391906104a0565b60405180910390f35b61019660048036038101906101919190610691565b61035e565b6040516101a391906106bc565b60405180910390f35b6101c660048036038101906101c19190610801565b610373565b005b6101e260048036038101906101dd9190610885565b6103d4565b005b5f6002826101f291906108dd565b9050919050565b60058181548110610208575f80fd5b905f5260205f2090600202015f91509050805f01805461022790610946565b80601f016020809104026020016040519081016040528092919081815260200182805461025390610946565b801561029e5780601f106102755761010080835404028352916020019161029e565b820191905f5260205f20905b81548152906001019060200180831161028157829003601f168201915b5050505050908060010154905082565b600281815481106102bd575f80fd5b905f5260205f209060109182820401919006600202915054906101000a900461ffff1681565b8060065f8473ffffffffffffffffffffffffffffffffffffffff1673ffffffffffffffffffffffffffffffffffffffff1681526020019081526020015f20819055505050565b805f806101000a81548161ffff021916908360010b61ffff16021790555050565b5f805f9054906101000a900460010b905090565b6006602052805f5260405f205f915090505481565b6005604051806040016040528084815260200183815250908060018154018082558091505060019003905f5260205f2090600202015f909190919091505f820151815f0190816103c39190610b13565b506020820151816001015550505050565b600281908060018154018082558091505060019003905f5260205f2090601091828204019190066002029091909190916101000a81548161ffff021916908361ffff16021790555050565b5f604051905090565b5f80fd5b5f80fd5b5f8160010b9050919050565b61044581610430565b811461044f575f80fd5b50565b5f813590506104608161043c565b92915050565b5f6020828403121561047b5761047a610428565b5b5f61048884828501610452565b91505092915050565b61049a81610430565b82525050565b5f6020820190506104b35f830184610491565b92915050565b5f819050919050565b6104cb816104b9565b81146104d5575f80fd5b50565b5f813590506104e6816104c2565b92915050565b5f6020828403121561050157610500610428565b5b5f61050e848285016104d8565b91505092915050565b5f81519050919050565b5f82825260208201905092915050565b8281835e5f83830152505050565b5f601f19601f8301169050919050565b5f61055982610517565b6105638185610521565b9350610573818560208601610531565b61057c8161053f565b840191505092915050565b610590816104b9565b82525050565b5f6040820190508181035f8301526105ae818561054f565b90506105bd6020830184610587565b9392505050565b5f61ffff82169050919050565b6105da816105c4565b82525050565b5f6020820190506105f35f8301846105d1565b92915050565b5f73ffffffffffffffffffffffffffffffffffffffff82169050919050565b5f610622826105f9565b9050919050565b61063281610618565b811461063c575f80fd5b50565b5f8135905061064d81610629565b92915050565b5f806040838503121561066957610668610428565b5b5f6106768582860161063f565b9250506020610687858286016104d8565b9150509250929050565b5f602082840312156106a6576106a5610428565b5b5f6106b38482850161063f565b91505092915050565b5f6020820190506106cf5f830184610587565b92915050565b5f80fd5b5f80fd5b7f4e487b71000000000000000000000000000000000000000000000000000000005f52604160045260245ffd5b6107138261053f565b810181811067ffffffffffffffff82111715610732576107316106dd565b5b80604052505050565b5f61074461041f565b9050610750828261070a565b919050565b5f67ffffffffffffffff82111561076f5761076e6106dd565b5b6107788261053f565b9050602081019050919050565b828183375f83830152505050565b5f6107a56107a084610755565b61073b565b9050828152602081018484840111156107c1576107c06106d9565b5b6107cc848285610785565b509392505050565b5f82601f8301126107e8576107e76106d5565b5b81356107f8848260208601610793565b91505092915050565b5f806040838503121561081757610816610428565b5b5f83013567ffffffffffffffff8111156108345761083361042c565b5b610840858286016107d4565b9250506020610851858286016104d8565b9150509250929050565b610864816105c4565b811461086e575f80fd5b50565b5f8135905061087f8161085b565b92915050565b5f6020828403121561089a57610899610428565b5b5f6108a784828501610871565b91505092915050565b7f4e487b71000000000000000000000000000000000000000000000000000000005f52601160045260245ffd5b5f6108e782610430565b91506108f283610430565b925082820261090081610430565b9150808214610912576109116108b0565b5b5092915050565b7f4e487b71000000000000000000000000000000000000000000000000000000005f52602260045260245ffd5b5f600282049050600182168061095d57607f821691505b6020821081036109705761096f610919565b5b50919050565b5f819050815f5260205f209050919050565b5f6020601f8301049050919050565b5f82821b905092915050565b5f600883026109d27fffffffffffffffffffffffffffffffffffffffffffffffffffffffffffffffff82610997565b6109dc8683610997565b95508019841693508086168417925050509392505050565b5f819050919050565b5f610a17610a12610a0d846104b9565b6109f4565b6104b9565b9050919050565b5f819050919050565b610a30836109fd565b610a44610a3c82610a1e565b8484546109a3565b825550505050565b5f90565b610a58610a4c565b610a63818484610a27565b505050565b5b81811015610a8657610a7b5f82610a50565b600181019050610a69565b5050565b601f821115610acb57610a9c81610976565b610aa584610988565b81016020851015610ab4578190505b610ac8610ac085610988565b830182610a68565b50505b505050565b5f82821c905092915050565b5f610aeb5f1984600802610ad0565b1980831691505092915050565b5f610b038383610adc565b9150826002028217905092915050565b610b1c82610517565b67ffffffffffffffff811115610b3557610b346106dd565b5b610b3f8254610946565b610b4a828285610a8a565b5f60209050601f831160018114610b7b575f8415610b69578287015190505b610b738582610af8565b865550610bda565b601f198416610b8986610976565b5f5b82811015610bb057848901518255600182019150602085019450602081019050610b8b565b86831015610bcd5784890151610bc9601f891682610adc565b8355505b6001600288020188555050505b50505050505056fea264697066735822122024debbf3e5cf7abda11529304268fb0215e0aa8aa752730cca228a4acefdf59364736f6c634300081a0033",
					"opcodes": "PUSH1 0x80 PUSH1 0x40 MSTORE PUSH32 0xFFFFFFFFFFFFFFFFFFFFFFFFFFFFFFFFFFFFFFFFFFFFFFFFFFFFFFFFFFFFFE0C PUSH0 DUP1 PUSH2 0x100 EXP DUP2 SLOAD DUP2 PUSH2 0xFFFF MUL NOT AND SWAP1 DUP4 PUSH1 0x1 SIGNEXTEND PUSH2 0xFFFF AND MUL OR SWAP1 SSTORE POP PUSH1 0x19 PUSH0 PUSH1 0x2 PUSH2 0x100 EXP DUP2 SLOAD DUP2 PUSH2 0xFFFF MUL NOT AND SWAP1 DUP4 PUSH2 0xFFFF AND MUL OR SWAP1 SSTORE POP PUSH1 0x1 PUSH0 PUSH1 0x4 PUSH2 0x100 EXP DUP2 SLOAD DUP2 PUSH1 0xFF MUL NOT AND SWAP1 DUP4 ISZERO ISZERO MUL OR SWAP1 SSTORE POP PUSH1 0x40 MLOAD DUP1 PUSH1 0x40 ADD PUSH1 0x40 MSTORE DUP1 PUSH1 0x5 DUP2 MSTORE PUSH1 0x20 ADD PUSH32 0x4769616E67000000000000000000000000000000000000000000000000000000 DUP2 MSTORE POP PUSH1 0x1 SWAP1 DUP2 PUSH2 0xBD SWAP2 SWAP1 PUSH2 0x381 JUMP JUMPDEST POP PUSH32 0x6136363561343539323034323266396434313765343836376566646334666238 PUSH1 0x3 SSTORE PUSH20 0x76C9A0EEFA918D802D406B35D6B76E057A89B004 PUSH1 0x4 PUSH0 PUSH2 0x100 EXP DUP2 SLOAD DUP2 PUSH20 0xFFFFFFFFFFFFFFFFFFFFFFFFFFFFFFFFFFFFFFFF MUL NOT AND SWAP1 DUP4 PUSH20 0xFFFFFFFFFFFFFFFFFFFFFFFFFFFFFFFFFFFFFFFF AND MUL OR SWAP1 SSTORE POP CALLVALUE DUP1 ISZERO PUSH2 0x141 JUMPI PUSH0 DUP1 REVERT JUMPDEST POP PUSH2 0x450 JUMP JUMPDEST PUSH0 DUP2 MLOAD SWAP1 POP SWAP2 SWAP1 POP JUMP JUMPDEST PUSH32 0x4E487B7100000000000000000000000000000000000000000000000000000000 PUSH0 MSTORE PUSH1 0x41 PUSH1 0x4 MSTORE PUSH1 0x24 PUSH0 REVERT JUMPDEST PUSH32 0x4E487B7100000000000000000000000000000000000000000000000000000000 PUSH0 MSTORE PUSH1 0x22 PUSH1 0x4 MSTORE PUSH1 0x24 PUSH0 REVERT JUMPDEST PUSH0 PUSH1 0x2 DUP3 DIV SWAP1 POP PUSH1 0x1 DUP3 AND DUP1 PUSH2 0x1C2 JUMPI PUSH1 0x7F DUP3 AND SWAP2 POP JUMPDEST PUSH1 0x20 DUP3 LT DUP2 SUB PUSH2 0x1D5 JUMPI PUSH2 0x1D4 PUSH2 0x17E JUMP JUMPDEST JUMPDEST POP SWAP2 SWAP1 POP JUMP JUMPDEST PUSH0 DUP2 SWAP1 POP DUP2 PUSH0 MSTORE PUSH1 0x20 PUSH0 KECCAK256 SWAP1 POP SWAP2 SWAP1 POP JUMP JUMPDEST PUSH0 PUSH1 0x20 PUSH1 0x1F DUP4 ADD DIV SWAP1 POP SWAP2 SWAP1 POP JUMP JUMPDEST PUSH0 DUP3 DUP3 SHL SWAP1 POP SWAP3 SWAP2 POP POP JUMP JUMPDEST PUSH0 PUSH1 0x8 DUP4 MUL PUSH2 0x237 PUSH32 0xFFFFFFFFFFFFFFFFFFFFFFFFFFFFFFFFFFFFFFFFFFFFFFFFFFFFFFFFFFFFFFFF DUP3 PUSH2 0x1FC JUMP JUMPDEST PUSH2 0x241 DUP7 DUP4 PUSH2 0x1FC JUMP JUMPDEST SWAP6 POP DUP1 NOT DUP5 AND SWAP4 POP DUP1 DUP7 AND DUP5 OR SWAP3 POP POP POP SWAP4 SWAP3 POP POP POP JUMP JUMPDEST PUSH0 DUP2 SWAP1 POP SWAP2 SWAP1 POP JUMP JUMPDEST PUSH0 DUP2 SWAP1 POP SWAP2 SWAP1 POP JUMP JUMPDEST PUSH0 PUSH2 0x285 PUSH2 0x280 PUSH2 0x27B DUP5 PUSH2 0x259 JUMP JUMPDEST PUSH2 0x262 JUMP JUMPDEST PUSH2 0x259 JUMP JUMPDEST SWAP1 POP SWAP2 SWAP1 POP JUMP JUMPDEST PUSH0 DUP2 SWAP1 POP SWAP2 SWAP1 POP JUMP JUMPDEST PUSH2 0x29E DUP4 PUSH2 0x26B JUMP JUMPDEST PUSH2 0x2B2 PUSH2 0x2AA DUP3 PUSH2 0x28C JUMP JUMPDEST DUP5 DUP5 SLOAD PUSH2 0x208 JUMP JUMPDEST DUP3 SSTORE POP POP POP POP JUMP JUMPDEST PUSH0 SWAP1 JUMP JUMPDEST PUSH2 0x2C6 PUSH2 0x2BA JUMP JUMPDEST PUSH2 0x2D1 DUP2 DUP5 DUP5 PUSH2 0x295 JUMP JUMPDEST POP POP POP JUMP JUMPDEST JUMPDEST DUP2 DUP2 LT ISZERO PUSH2 0x2F4 JUMPI PUSH2 0x2E9 PUSH0 DUP3 PUSH2 0x2BE JUMP JUMPDEST PUSH1 0x1 DUP2 ADD SWAP1 POP PUSH2 0x2D7 JUMP JUMPDEST POP POP JUMP JUMPDEST PUSH1 0x1F DUP3 GT ISZERO PUSH2 0x339 JUMPI PUSH2 0x30A DUP2 PUSH2 0x1DB JUMP JUMPDEST PUSH2 0x313 DUP5 PUSH2 0x1ED JUMP JUMPDEST DUP2 ADD PUSH1 0x20 DUP6 LT ISZERO PUSH2 0x322 JUMPI DUP2 SWAP1 POP JUMPDEST PUSH2 0x336 PUSH2 0x32E DUP6 PUSH2 0x1ED JUMP JUMPDEST DUP4 ADD DUP3 PUSH2 0x2D6 JUMP JUMPDEST POP POP JUMPDEST POP POP POP JUMP JUMPDEST PUSH0 DUP3 DUP3 SHR SWAP1 POP SWAP3 SWAP2 POP POP JUMP JUMPDEST PUSH0 PUSH2 0x359 PUSH0 NOT DUP5 PUSH1 0x8 MUL PUSH2 0x33E JUMP JUMPDEST NOT DUP1 DUP4 AND SWAP2 POP POP SWAP3 SWAP2 POP POP JUMP JUMPDEST PUSH0 PUSH2 0x371 DUP4 DUP4 PUSH2 0x34A JUMP JUMPDEST SWAP2 POP DUP3 PUSH1 0x2 MUL DUP3 OR SWAP1 POP SWAP3 SWAP2 POP POP JUMP JUMPDEST PUSH2 0x38A DUP3 PUSH2 0x147 JUMP JUMPDEST PUSH8 0xFFFFFFFFFFFFFFFF DUP2 GT ISZERO PUSH2 0x3A3 JUMPI PUSH2 0x3A2 PUSH2 0x151 JUMP JUMPDEST JUMPDEST PUSH2 0x3AD DUP3 SLOAD PUSH2 0x1AB JUMP JUMPDEST PUSH2 0x3B8 DUP3 DUP3 DUP6 PUSH2 0x2F8 JUMP JUMPDEST PUSH0 PUSH1 0x20 SWAP1 POP PUSH1 0x1F DUP4 GT PUSH1 0x1 DUP2 EQ PUSH2 0x3E9 JUMPI PUSH0 DUP5 ISZERO PUSH2 0x3D7 JUMPI DUP3 DUP8 ADD MLOAD SWAP1 POP JUMPDEST PUSH2 0x3E1 DUP6 DUP3 PUSH2 0x366 JUMP JUMPDEST DUP7 SSTORE POP PUSH2 0x448 JUMP JUMPDEST PUSH1 0x1F NOT DUP5 AND PUSH2 0x3F7 DUP7 PUSH2 0x1DB JUMP JUMPDEST PUSH0 JUMPDEST DUP3 DUP2 LT ISZERO PUSH2 0x41E JUMPI DUP5 DUP10 ADD MLOAD DUP3 SSTORE PUSH1 0x1 DUP3 ADD SWAP2 POP PUSH1 0x20 DUP6 ADD SWAP5 POP PUSH1 0x20 DUP2 ADD SWAP1 POP PUSH2 0x3F9 JUMP JUMPDEST DUP7 DUP4 LT ISZERO PUSH2 0x43B JUMPI DUP5 DUP10 ADD MLOAD PUSH2 0x437 PUSH1 0x1F DUP10 AND DUP3 PUSH2 0x34A JUMP JUMPDEST DUP4 SSTORE POP JUMPDEST PUSH1 0x1 PUSH1 0x2 DUP9 MUL ADD DUP9 SSTORE POP POP POP JUMPDEST POP POP POP POP POP POP JUMP JUMPDEST PUSH2 0xC18 DUP1 PUSH2 0x45D PUSH0 CODECOPY PUSH0 RETURN INVALID PUSH1 0x80 PUSH1 0x40 MSTORE CALLVALUE DUP1 ISZERO PUSH2 0xF JUMPI PUSH0 DUP1 REVERT JUMPDEST POP PUSH1 0x4 CALLDATASIZE LT PUSH2 0x91 JUMPI PUSH0 CALLDATALOAD PUSH1 0xE0 SHR DUP1 PUSH4 0x9654613B GT PUSH2 0x64 JUMPI DUP1 PUSH4 0x9654613B EQ PUSH2 0x142 JUMPI DUP1 PUSH4 0x98E1B410 EQ PUSH2 0x15E JUMPI DUP1 PUSH4 0x9B9FF3FE EQ PUSH2 0x17C JUMPI DUP1 PUSH4 0xDA9C2B6B EQ PUSH2 0x1AC JUMPI DUP1 PUSH4 0xE5140521 EQ PUSH2 0x1C8 JUMPI PUSH2 0x91 JUMP JUMPDEST DUP1 PUSH4 0x122D232B EQ PUSH2 0x95 JUMPI DUP1 PUSH4 0x72716B25 EQ PUSH2 0xC5 JUMPI DUP1 PUSH4 0x81C60603 EQ PUSH2 0xF6 JUMPI DUP1 PUSH4 0x877E3630 EQ PUSH2 0x126 JUMPI JUMPDEST PUSH0 DUP1 REVERT JUMPDEST PUSH2 0xAF PUSH1 0x4 DUP1 CALLDATASIZE SUB DUP2 ADD SWAP1 PUSH2 0xAA SWAP2 SWAP1 PUSH2 0x466 JUMP JUMPDEST PUSH2 0x1E4 JUMP JUMPDEST PUSH1 0x40 MLOAD PUSH2 0xBC SWAP2 SWAP1 PUSH2 0x4A0 JUMP JUMPDEST PUSH1 0x40 MLOAD DUP1 SWAP2 SUB SWAP1 RETURN JUMPDEST PUSH2 0xDF PUSH1 0x4 DUP1 CALLDATASIZE SUB DUP2 ADD SWAP1 PUSH2 0xDA SWAP2 SWAP1 PUSH2 0x4EC JUMP JUMPDEST PUSH2 0x1F9 JUMP JUMPDEST PUSH1 0x40 MLOAD PUSH2 0xED SWAP3 SWAP2 SWAP1 PUSH2 0x596 JUMP JUMPDEST PUSH1 0x40 MLOAD DUP1 SWAP2 SUB SWAP1 RETURN JUMPDEST PUSH2 0x110 PUSH1 0x4 DUP1 CALLDATASIZE SUB DUP2 ADD SWAP1 PUSH2 0x10B SWAP2 SWAP1 PUSH2 0x4EC JUMP JUMPDEST PUSH2 0x2AE JUMP JUMPDEST PUSH1 0x40 MLOAD PUSH2 0x11D SWAP2 SWAP1 PUSH2 0x5E0 JUMP JUMPDEST PUSH1 0x40 MLOAD DUP1 SWAP2 SUB SWAP1 RETURN JUMPDEST PUSH2 0x140 PUSH1 0x4 DUP1 CALLDATASIZE SUB DUP2 ADD SWAP1 PUSH2 0x13B SWAP2 SWAP1 PUSH2 0x653 JUMP JUMPDEST PUSH2 0x2E3 JUMP JUMPDEST STOP JUMPDEST PUSH2 0x15C PUSH1 0x4 DUP1 CALLDATASIZE SUB DUP2 ADD SWAP1 PUSH2 0x157 SWAP2 SWAP1 PUSH2 0x466 JUMP JUMPDEST PUSH2 0x329 JUMP JUMPDEST STOP JUMPDEST PUSH2 0x166 PUSH2 0x34A JUMP JUMPDEST PUSH1 0x40 MLOAD PUSH2 0x173 SWAP2 SWAP1 PUSH2 0x4A0 JUMP JUMPDEST PUSH1 0x40 MLOAD DUP1 SWAP2 SUB SWAP1 RETURN JUMPDEST PUSH2 0x196 PUSH1 0x4 DUP1 CALLDATASIZE SUB DUP2 ADD SWAP1 PUSH2 0x191 SWAP2 SWAP1 PUSH2 0x691 JUMP JUMPDEST PUSH2 0x35E JUMP JUMPDEST PUSH1 0x40 MLOAD PUSH2 0x1A3 SWAP2 SWAP1 PUSH2 0x6BC JUMP JUMPDEST PUSH1 0x40 MLOAD DUP1 SWAP2 SUB SWAP1 RETURN JUMPDEST PUSH2 0x1C6 PUSH1 0x4 DUP1 CALLDATASIZE SUB DUP2 ADD SWAP1 PUSH2 0x1C1 SWAP2 SWAP1 PUSH2 0x801 JUMP JUMPDEST PUSH2 0x373 JUMP JUMPDEST STOP JUMPDEST PUSH2 0x1E2 PUSH1 0x4 DUP1 CALLDATASIZE SUB DUP2 ADD SWAP1 PUSH2 0x1DD SWAP2 SWAP1 PUSH2 0x885 JUMP JUMPDEST PUSH2 0x3D4 JUMP JUMPDEST STOP JUMPDEST PUSH0 PUSH1 0x2 DUP3 PUSH2 0x1F2 SWAP2 SWAP1 PUSH2 0x8DD JUMP JUMPDEST SWAP1 POP SWAP2 SWAP1 POP JUMP JUMPDEST PUSH1 0x5 DUP2 DUP2 SLOAD DUP2 LT PUSH2 0x208 JUMPI PUSH0 DUP1 REVERT JUMPDEST SWAP1 PUSH0 MSTORE PUSH1 0x20 PUSH0 KECCAK256 SWAP1 PUSH1 0x2 MUL ADD PUSH0 SWAP2 POP SWAP1 POP DUP1 PUSH0 ADD DUP1 SLOAD PUSH2 0x227 SWAP1 PUSH2 0x946 JUMP JUMPDEST DUP1 PUSH1 0x1F ADD PUSH1 0x20 DUP1 SWAP2 DIV MUL PUSH1 0x20 ADD PUSH1 0x40 MLOAD SWAP1 DUP2 ADD PUSH1 0x40 MSTORE DUP1 SWAP3 SWAP2 SWAP1 DUP2 DUP2 MSTORE PUSH1 0x20 ADD DUP3 DUP1 SLOAD PUSH2 0x253 SWAP1 PUSH2 0x946 JUMP JUMPDEST DUP1 ISZERO PUSH2 0x29E JUMPI DUP1 PUSH1 0x1F LT PUSH2 0x275 JUMPI PUSH2 0x100 DUP1 DUP4 SLOAD DIV MUL DUP4 MSTORE SWAP2 PUSH1 0x20 ADD SWAP2 PUSH2 0x29E JUMP JUMPDEST DUP3 ADD SWAP2 SWAP1 PUSH0 MSTORE PUSH1 0x20 PUSH0 KECCAK256 SWAP1 JUMPDEST DUP2 SLOAD DUP2 MSTORE SWAP1 PUSH1 0x1 ADD SWAP1 PUSH1 0x20 ADD DUP1 DUP4 GT PUSH2 0x281 JUMPI DUP3 SWAP1 SUB PUSH1 0x1F AND DUP3 ADD SWAP2 JUMPDEST POP POP POP POP POP SWAP1 DUP1 PUSH1 0x1 ADD SLOAD SWAP1 POP DUP3 JUMP JUMPDEST PUSH1 0x2 DUP2 DUP2 SLOAD DUP2 LT PUSH2 0x2BD JUMPI PUSH0 DUP1 REVERT JUMPDEST SWAP1 PUSH0 MSTORE PUSH1 0x20 PUSH0 KECCAK256 SWAP1 PUSH1 0x10 SWAP2 DUP3 DUP3 DIV ADD SWAP2 SWAP1 MOD PUSH1 0x2 MUL SWAP2 POP SLOAD SWAP1 PUSH2 0x100 EXP SWAP1 DIV PUSH2 0xFFFF AND DUP2 JUMP JUMPDEST DUP1 PUSH1 0x6 PUSH0 DUP5 PUSH20 0xFFFFFFFFFFFFFFFFFFFFFFFFFFFFFFFFFFFFFFFF AND PUSH20 0xFFFFFFFFFFFFFFFFFFFFFFFFFFFFFFFFFFFFFFFF AND DUP2 MSTORE PUSH1 0x20 ADD SWAP1 DUP2 MSTORE PUSH1 0x20 ADD PUSH0 KECCAK256 DUP2 SWAP1 SSTORE POP POP POP JUMP JUMPDEST DUP1 PUSH0 DUP1 PUSH2 0x100 EXP DUP2 SLOAD DUP2 PUSH2 0xFFFF MUL NOT AND SWAP1 DUP4 PUSH1 0x1 SIGNEXTEND PUSH2 0xFFFF AND MUL OR SWAP1 SSTORE POP POP JUMP JUMPDEST PUSH0 DUP1 PUSH0 SWAP1 SLOAD SWAP1 PUSH2 0x100 EXP SWAP1 DIV PUSH1 0x1 SIGNEXTEND SWAP1 POP SWAP1 JUMP JUMPDEST PUSH1 0x6 PUSH1 0x20 MSTORE DUP1 PUSH0 MSTORE PUSH1 0x40 PUSH0 KECCAK256 PUSH0 SWAP2 POP SWAP1 POP SLOAD DUP2 JUMP JUMPDEST PUSH1 0x5 PUSH1 0x40 MLOAD DUP1 PUSH1 0x40 ADD PUSH1 0x40 MSTORE DUP1 DUP5 DUP2 MSTORE PUSH1 0x20 ADD DUP4 DUP2 MSTORE POP SWAP1 DUP1 PUSH1 0x1 DUP2 SLOAD ADD DUP1 DUP3 SSTORE DUP1 SWAP2 POP POP PUSH1 0x1 SWAP1 SUB SWAP1 PUSH0 MSTORE PUSH1 0x20 PUSH0 KECCAK256 SWAP1 PUSH1 0x2 MUL ADD PUSH0 SWAP1 SWAP2 SWAP1 SWAP2 SWAP1 SWAP2 POP PUSH0 DUP3 ADD MLOAD DUP2 PUSH0 ADD SWAP1 DUP2 PUSH2 0x3C3 SWAP2 SWAP1 PUSH2 0xB13 JUMP JUMPDEST POP PUSH1 0x20 DUP3 ADD MLOAD DUP2 PUSH1 0x1 ADD SSTORE POP POP POP POP JUMP JUMPDEST PUSH1 0x2 DUP2 SWAP1 DUP1 PUSH1 0x1 DUP2 SLOAD ADD DUP1 DUP3 SSTORE DUP1 SWAP2 POP POP PUSH1 0x1 SWAP1 SUB SWAP1 PUSH0 MSTORE PUSH1 0x20 PUSH0 KECCAK256 SWAP1 PUSH1 0x10 SWAP2 DUP3 DUP3 DIV ADD SWAP2 SWAP1 MOD PUSH1 0x2 MUL SWAP1 SWAP2 SWAP1 SWAP2 SWAP1 SWAP2 PUSH2 0x100 EXP DUP2 SLOAD DUP2 PUSH2 0xFFFF MUL NOT AND SWAP1 DUP4 PUSH2 0xFFFF AND MUL OR SWAP1 SSTORE POP POP JUMP JUMPDEST PUSH0 PUSH1 0x40 MLOAD SWAP1 POP SWAP1 JUMP JUMPDEST PUSH0 DUP1 REVERT JUMPDEST PUSH0 DUP1 REVERT JUMPDEST PUSH0 DUP2 PUSH1 0x1 SIGNEXTEND SWAP1 POP SWAP2 SWAP1 POP JUMP JUMPDEST PUSH2 0x445 DUP2 PUSH2 0x430 JUMP JUMPDEST DUP2 EQ PUSH2 0x44F JUMPI PUSH0 DUP1 REVERT JUMPDEST POP JUMP JUMPDEST PUSH0 DUP2 CALLDATALOAD SWAP1 POP PUSH2 0x460 DUP2 PUSH2 0x43C JUMP JUMPDEST SWAP3 SWAP2 POP POP JUMP JUMPDEST PUSH0 PUSH1 0x20 DUP3 DUP5 SUB SLT ISZERO PUSH2 0x47B JUMPI PUSH2 0x47A PUSH2 0x428 JUMP JUMPDEST JUMPDEST PUSH0 PUSH2 0x488 DUP5 DUP3 DUP6 ADD PUSH2 0x452 JUMP JUMPDEST SWAP2 POP POP SWAP3 SWAP2 POP POP JUMP JUMPDEST PUSH2 0x49A DUP2 PUSH2 0x430 JUMP JUMPDEST DUP3 MSTORE POP POP JUMP JUMPDEST PUSH0 PUSH1 0x20 DUP3 ADD SWAP1 POP PUSH2 0x4B3 PUSH0 DUP4 ADD DUP5 PUSH2 0x491 JUMP JUMPDEST SWAP3 SWAP2 POP POP JUMP JUMPDEST PUSH0 DUP2 SWAP1 POP SWAP2 SWAP1 POP JUMP JUMPDEST PUSH2 0x4CB DUP2 PUSH2 0x4B9 JUMP JUMPDEST DUP2 EQ PUSH2 0x4D5 JUMPI PUSH0 DUP1 REVERT JUMPDEST POP JUMP JUMPDEST PUSH0 DUP2 CALLDATALOAD SWAP1 POP PUSH2 0x4E6 DUP2 PUSH2 0x4C2 JUMP JUMPDEST SWAP3 SWAP2 POP POP JUMP JUMPDEST PUSH0 PUSH1 0x20 DUP3 DUP5 SUB SLT ISZERO PUSH2 0x501 JUMPI PUSH2 0x500 PUSH2 0x428 JUMP JUMPDEST JUMPDEST PUSH0 PUSH2 0x50E DUP5 DUP3 DUP6 ADD PUSH2 0x4D8 JUMP JUMPDEST SWAP2 POP POP SWAP3 SWAP2 POP POP JUMP JUMPDEST PUSH0 DUP2 MLOAD SWAP1 POP SWAP2 SWAP1 POP JUMP JUMPDEST PUSH0 DUP3 DUP3 MSTORE PUSH1 0x20 DUP3 ADD SWAP1 POP SWAP3 SWAP2 POP POP JUMP JUMPDEST DUP3 DUP2 DUP4 MCOPY PUSH0 DUP4 DUP4 ADD MSTORE POP POP POP JUMP JUMPDEST PUSH0 PUSH1 0x1F NOT PUSH1 0x1F DUP4 ADD AND SWAP1 POP SWAP2 SWAP1 POP JUMP JUMPDEST PUSH0 PUSH2 0x559 DUP3 PUSH2 0x517 JUMP JUMPDEST PUSH2 0x563 DUP2 DUP6 PUSH2 0x521 JUMP JUMPDEST SWAP4 POP PUSH2 0x573 DUP2 DUP6 PUSH1 0x20 DUP7 ADD PUSH2 0x531 JUMP JUMPDEST PUSH2 0x57C DUP2 PUSH2 0x53F JUMP JUMPDEST DUP5 ADD SWAP2 POP POP SWAP3 SWAP2 POP POP JUMP JUMPDEST PUSH2 0x590 DUP2 PUSH2 0x4B9 JUMP JUMPDEST DUP3 MSTORE POP POP JUMP JUMPDEST PUSH0 PUSH1 0x40 DUP3 ADD SWAP1 POP DUP2 DUP2 SUB PUSH0 DUP4 ADD MSTORE PUSH2 0x5AE DUP2 DUP6 PUSH2 0x54F JUMP JUMPDEST SWAP1 POP PUSH2 0x5BD PUSH1 0x20 DUP4 ADD DUP5 PUSH2 0x587 JUMP JUMPDEST SWAP4 SWAP3 POP POP POP JUMP JUMPDEST PUSH0 PUSH2 0xFFFF DUP3 AND SWAP1 POP SWAP2 SWAP1 POP JUMP JUMPDEST PUSH2 0x5DA DUP2 PUSH2 0x5C4 JUMP JUMPDEST DUP3 MSTORE POP POP JUMP JUMPDEST PUSH0 PUSH1 0x20 DUP3 ADD SWAP1 POP PUSH2 0x5F3 PUSH0 DUP4 ADD DUP5 PUSH2 0x5D1 JUMP JUMPDEST SWAP3 SWAP2 POP POP JUMP JUMPDEST PUSH0 PUSH20 0xFFFFFFFFFFFFFFFFFFFFFFFFFFFFFFFFFFFFFFFF DUP3 AND SWAP1 POP SWAP2 SWAP1 POP JUMP JUMPDEST PUSH0 PUSH2 0x622 DUP3 PUSH2 0x5F9 JUMP JUMPDEST SWAP1 POP SWAP2 SWAP1 POP JUMP JUMPDEST PUSH2 0x632 DUP2 PUSH2 0x618 JUMP JUMPDEST DUP2 EQ PUSH2 0x63C JUMPI PUSH0 DUP1 REVERT JUMPDEST POP JUMP JUMPDEST PUSH0 DUP2 CALLDATALOAD SWAP1 POP PUSH2 0x64D DUP2 PUSH2 0x629 JUMP JUMPDEST SWAP3 SWAP2 POP POP JUMP JUMPDEST PUSH0 DUP1 PUSH1 0x40 DUP4 DUP6 SUB SLT ISZERO PUSH2 0x669 JUMPI PUSH2 0x668 PUSH2 0x428 JUMP JUMPDEST JUMPDEST PUSH0 PUSH2 0x676 DUP6 DUP3 DUP7 ADD PUSH2 0x63F JUMP JUMPDEST SWAP3 POP POP PUSH1 0x20 PUSH2 0x687 DUP6 DUP3 DUP7 ADD PUSH2 0x4D8 JUMP JUMPDEST SWAP2 POP POP SWAP3 POP SWAP3 SWAP1 POP JUMP JUMPDEST PUSH0 PUSH1 0x20 DUP3 DUP5 SUB SLT ISZERO PUSH2 0x6A6 JUMPI PUSH2 0x6A5 PUSH2 0x428 JUMP JUMPDEST JUMPDEST PUSH0 PUSH2 0x6B3 DUP5 DUP3 DUP6 ADD PUSH2 0x63F JUMP JUMPDEST SWAP2 POP POP SWAP3 SWAP2 POP POP JUMP JUMPDEST PUSH0 PUSH1 0x20 DUP3 ADD SWAP1 POP PUSH2 0x6CF PUSH0 DUP4 ADD DUP5 PUSH2 0x587 JUMP JUMPDEST SWAP3 SWAP2 POP POP JUMP JUMPDEST PUSH0 DUP1 REVERT JUMPDEST PUSH0 DUP1 REVERT JUMPDEST PUSH32 0x4E487B7100000000000000000000000000000000000000000000000000000000 PUSH0 MSTORE PUSH1 0x41 PUSH1 0x4 MSTORE PUSH1 0x24 PUSH0 REVERT JUMPDEST PUSH2 0x713 DUP3 PUSH2 0x53F JUMP JUMPDEST DUP2 ADD DUP2 DUP2 LT PUSH8 0xFFFFFFFFFFFFFFFF DUP3 GT OR ISZERO PUSH2 0x732 JUMPI PUSH2 0x731 PUSH2 0x6DD JUMP JUMPDEST JUMPDEST DUP1 PUSH1 0x40 MSTORE POP POP POP JUMP JUMPDEST PUSH0 PUSH2 0x744 PUSH2 0x41F JUMP JUMPDEST SWAP1 POP PUSH2 0x750 DUP3 DUP3 PUSH2 0x70A JUMP JUMPDEST SWAP2 SWAP1 POP JUMP JUMPDEST PUSH0 PUSH8 0xFFFFFFFFFFFFFFFF DUP3 GT ISZERO PUSH2 0x76F JUMPI PUSH2 0x76E PUSH2 0x6DD JUMP JUMPDEST JUMPDEST PUSH2 0x778 DUP3 PUSH2 0x53F JUMP JUMPDEST SWAP1 POP PUSH1 0x20 DUP2 ADD SWAP1 POP SWAP2 SWAP1 POP JUMP JUMPDEST DUP3 DUP2 DUP4 CALLDATACOPY PUSH0 DUP4 DUP4 ADD MSTORE POP POP POP JUMP JUMPDEST PUSH0 PUSH2 0x7A5 PUSH2 0x7A0 DUP5 PUSH2 0x755 JUMP JUMPDEST PUSH2 0x73B JUMP JUMPDEST SWAP1 POP DUP3 DUP2 MSTORE PUSH1 0x20 DUP2 ADD DUP5 DUP5 DUP5 ADD GT ISZERO PUSH2 0x7C1 JUMPI PUSH2 0x7C0 PUSH2 0x6D9 JUMP JUMPDEST JUMPDEST PUSH2 0x7CC DUP5 DUP3 DUP6 PUSH2 0x785 JUMP JUMPDEST POP SWAP4 SWAP3 POP POP POP JUMP JUMPDEST PUSH0 DUP3 PUSH1 0x1F DUP4 ADD SLT PUSH2 0x7E8 JUMPI PUSH2 0x7E7 PUSH2 0x6D5 JUMP JUMPDEST JUMPDEST DUP2 CALLDATALOAD PUSH2 0x7F8 DUP5 DUP3 PUSH1 0x20 DUP7 ADD PUSH2 0x793 JUMP JUMPDEST SWAP2 POP POP SWAP3 SWAP2 POP POP JUMP JUMPDEST PUSH0 DUP1 PUSH1 0x40 DUP4 DUP6 SUB SLT ISZERO PUSH2 0x817 JUMPI PUSH2 0x816 PUSH2 0x428 JUMP JUMPDEST JUMPDEST PUSH0 DUP4 ADD CALLDATALOAD PUSH8 0xFFFFFFFFFFFFFFFF DUP2 GT ISZERO PUSH2 0x834 JUMPI PUSH2 0x833 PUSH2 0x42C JUMP JUMPDEST JUMPDEST PUSH2 0x840 DUP6 DUP3 DUP7 ADD PUSH2 0x7D4 JUMP JUMPDEST SWAP3 POP POP PUSH1 0x20 PUSH2 0x851 DUP6 DUP3 DUP7 ADD PUSH2 0x4D8 JUMP JUMPDEST SWAP2 POP POP SWAP3 POP SWAP3 SWAP1 POP JUMP JUMPDEST PUSH2 0x864 DUP2 PUSH2 0x5C4 JUMP JUMPDEST DUP2 EQ PUSH2 0x86E JUMPI PUSH0 DUP1 REVERT JUMPDEST POP JUMP JUMPDEST PUSH0 DUP2 CALLDATALOAD SWAP1 POP PUSH2 0x87F DUP2 PUSH2 0x85B JUMP JUMPDEST SWAP3 SWAP2 POP POP JUMP JUMPDEST PUSH0 PUSH1 0x20 DUP3 DUP5 SUB SLT ISZERO PUSH2 0x89A JUMPI PUSH2 0x899 PUSH2 0x428 JUMP JUMPDEST JUMPDEST PUSH0 PUSH2 0x8A7 DUP5 DUP3 DUP6 ADD PUSH2 0x871 JUMP JUMPDEST SWAP2 POP POP SWAP3 SWAP2 POP POP JUMP JUMPDEST PUSH32 0x4E487B7100000000000000000000000000000000000000000000000000000000 PUSH0 MSTORE PUSH1 0x11 PUSH1 0x4 MSTORE PUSH1 0x24 PUSH0 REVERT JUMPDEST PUSH0 PUSH2 0x8E7 DUP3 PUSH2 0x430 JUMP JUMPDEST SWAP2 POP PUSH2 0x8F2 DUP4 PUSH2 0x430 JUMP JUMPDEST SWAP3 POP DUP3 DUP3 MUL PUSH2 0x900 DUP2 PUSH2 0x430 JUMP JUMPDEST SWAP2 POP DUP1 DUP3 EQ PUSH2 0x912 JUMPI PUSH2 0x911 PUSH2 0x8B0 JUMP JUMPDEST JUMPDEST POP SWAP3 SWAP2 POP POP JUMP JUMPDEST PUSH32 0x4E487B7100000000000000000000000000000000000000000000000000000000 PUSH0 MSTORE PUSH1 0x22 PUSH1 0x4 MSTORE PUSH1 0x24 PUSH0 REVERT JUMPDEST PUSH0 PUSH1 0x2 DUP3 DIV SWAP1 POP PUSH1 0x1 DUP3 AND DUP1 PUSH2 0x95D JUMPI PUSH1 0x7F DUP3 AND SWAP2 POP JUMPDEST PUSH1 0x20 DUP3 LT DUP2 SUB PUSH2 0x970 JUMPI PUSH2 0x96F PUSH2 0x919 JUMP JUMPDEST JUMPDEST POP SWAP2 SWAP1 POP JUMP JUMPDEST PUSH0 DUP2 SWAP1 POP DUP2 PUSH0 MSTORE PUSH1 0x20 PUSH0 KECCAK256 SWAP1 POP SWAP2 SWAP1 POP JUMP JUMPDEST PUSH0 PUSH1 0x20 PUSH1 0x1F DUP4 ADD DIV SWAP1 POP SWAP2 SWAP1 POP JUMP JUMPDEST PUSH0 DUP3 DUP3 SHL SWAP1 POP SWAP3 SWAP2 POP POP JUMP JUMPDEST PUSH0 PUSH1 0x8 DUP4 MUL PUSH2 0x9D2 PUSH32 0xFFFFFFFFFFFFFFFFFFFFFFFFFFFFFFFFFFFFFFFFFFFFFFFFFFFFFFFFFFFFFFFF DUP3 PUSH2 0x997 JUMP JUMPDEST PUSH2 0x9DC DUP7 DUP4 PUSH2 0x997 JUMP JUMPDEST SWAP6 POP DUP1 NOT DUP5 AND SWAP4 POP DUP1 DUP7 AND DUP5 OR SWAP3 POP POP POP SWAP4 SWAP3 POP POP POP JUMP JUMPDEST PUSH0 DUP2 SWAP1 POP SWAP2 SWAP1 POP JUMP JUMPDEST PUSH0 PUSH2 0xA17 PUSH2 0xA12 PUSH2 0xA0D DUP5 PUSH2 0x4B9 JUMP JUMPDEST PUSH2 0x9F4 JUMP JUMPDEST PUSH2 0x4B9 JUMP JUMPDEST SWAP1 POP SWAP2 SWAP1 POP JUMP JUMPDEST PUSH0 DUP2 SWAP1 POP SWAP2 SWAP1 POP JUMP JUMPDEST PUSH2 0xA30 DUP4 PUSH2 0x9FD JUMP JUMPDEST PUSH2 0xA44 PUSH2 0xA3C DUP3 PUSH2 0xA1E JUMP JUMPDEST DUP5 DUP5 SLOAD PUSH2 0x9A3 JUMP JUMPDEST DUP3 SSTORE POP POP POP POP JUMP JUMPDEST PUSH0 SWAP1 JUMP JUMPDEST PUSH2 0xA58 PUSH2 0xA4C JUMP JUMPDEST PUSH2 0xA63 DUP2 DUP5 DUP5 PUSH2 0xA27 JUMP JUMPDEST POP POP POP JUMP JUMPDEST JUMPDEST DUP2 DUP2 LT ISZERO PUSH2 0xA86 JUMPI PUSH2 0xA7B PUSH0 DUP3 PUSH2 0xA50 JUMP JUMPDEST PUSH1 0x1 DUP2 ADD SWAP1 POP PUSH2 0xA69 JUMP JUMPDEST POP POP JUMP JUMPDEST PUSH1 0x1F DUP3 GT ISZERO PUSH2 0xACB JUMPI PUSH2 0xA9C DUP2 PUSH2 0x976 JUMP JUMPDEST PUSH2 0xAA5 DUP5 PUSH2 0x988 JUMP JUMPDEST DUP2 ADD PUSH1 0x20 DUP6 LT ISZERO PUSH2 0xAB4 JUMPI DUP2 SWAP1 POP JUMPDEST PUSH2 0xAC8 PUSH2 0xAC0 DUP6 PUSH2 0x988 JUMP JUMPDEST DUP4 ADD DUP3 PUSH2 0xA68 JUMP JUMPDEST POP POP JUMPDEST POP POP POP JUMP JUMPDEST PUSH0 DUP3 DUP3 SHR SWAP1 POP SWAP3 SWAP2 POP POP JUMP JUMPDEST PUSH0 PUSH2 0xAEB PUSH0 NOT DUP5 PUSH1 0x8 MUL PUSH2 0xAD0 JUMP JUMPDEST NOT DUP1 DUP4 AND SWAP2 POP POP SWAP3 SWAP2 POP POP JUMP JUMPDEST PUSH0 PUSH2 0xB03 DUP4 DUP4 PUSH2 0xADC JUMP JUMPDEST SWAP2 POP DUP3 PUSH1 0x2 MUL DUP3 OR SWAP1 POP SWAP3 SWAP2 POP POP JUMP JUMPDEST PUSH2 0xB1C DUP3 PUSH2 0x517 JUMP JUMPDEST PUSH8 0xFFFFFFFFFFFFFFFF DUP2 GT ISZERO PUSH2 0xB35 JUMPI PUSH2 0xB34 PUSH2 0x6DD JUMP JUMPDEST JUMPDEST PUSH2 0xB3F DUP3 SLOAD PUSH2 0x946 JUMP JUMPDEST PUSH2 0xB4A DUP3 DUP3 DUP6 PUSH2 0xA8A JUMP JUMPDEST PUSH0 PUSH1 0x20 SWAP1 POP PUSH1 0x1F DUP4 GT PUSH1 0x1 DUP2 EQ PUSH2 0xB7B JUMPI PUSH0 DUP5 ISZERO PUSH2 0xB69 JUMPI DUP3 DUP8 ADD MLOAD SWAP1 POP JUMPDEST PUSH2 0xB73 DUP6 DUP3 PUSH2 0xAF8 JUMP JUMPDEST DUP7 SSTORE POP PUSH2 0xBDA JUMP JUMPDEST PUSH1 0x1F NOT DUP5 AND PUSH2 0xB89 DUP7 PUSH2 0x976 JUMP JUMPDEST PUSH0 JUMPDEST DUP3 DUP2 LT ISZERO PUSH2 0xBB0 JUMPI DUP5 DUP10 ADD MLOAD DUP3 SSTORE PUSH1 0x1 DUP3 ADD SWAP2 POP PUSH1 0x20 DUP6 ADD SWAP5 POP PUSH1 0x20 DUP2 ADD SWAP1 POP PUSH2 0xB8B JUMP JUMPDEST DUP7 DUP4 LT ISZERO PUSH2 0xBCD JUMPI DUP5 DUP10 ADD MLOAD PUSH2 0xBC9 PUSH1 0x1F DUP10 AND DUP3 PUSH2 0xADC JUMP JUMPDEST DUP4 SSTORE POP JUMPDEST PUSH1 0x1 PUSH1 0x2 DUP9 MUL ADD DUP9 SSTORE POP POP POP JUMPDEST POP POP POP POP POP POP JUMP INVALID LOG2 PUSH5 0x6970667358 0x22 SLT KECCAK256 0x24 0xDE 0xBB RETURN 0xE5 0xCF PUSH27 0xBDA11529304268FB0215E0AA8AA752730CCA228A4ACEFDF5936473 PUSH16 0x6C634300081A00330000000000000000 "
				},
				"gasEstimates": {
					"creation": {
						"codeDepositCost": "619200",
						"executionCost": "infinite",
						"totalCost": "infinite"
					},
					"external": {
						"MyBlance(address)": "2846",
						"addNewHobbieNumber(uint16)": "50708",
						"addNewPerson(string,uint256)": "infinite",
						"doubleMoney(int16)": "infinite",
						"getMoney()": "2499",
						"hobbieNumbers(uint256)": "6584",
						"personOnMyFamily(uint256)": "infinite",
						"setMoney(int16)": "24683",
						"setMyBalance(address,uint256)": "22889"
					}
				},
				"methodIdentifiers": {
					"MyBlance(address)": "9b9ff3fe",
					"addNewHobbieNumber(uint16)": "e5140521",
					"addNewPerson(string,uint256)": "da9c2b6b",
					"doubleMoney(int16)": "122d232b",
					"getMoney()": "98e1b410",
					"hobbieNumbers(uint256)": "81c60603",
					"personOnMyFamily(uint256)": "72716b25",
					"setMoney(int16)": "9654613b",
					"setMyBalance(address,uint256)": "877e3630"
				}
			},
			"storageLayout": {
				"storage": [
					{
						"astId": 5,
						"contract": "SimpleStorage.sol:SimpleStorage",
						"label": "money",
						"offset": 0,
						"slot": "0",
						"type": "t_int16"
					},
					{
						"astId": 8,
						"contract": "SimpleStorage.sol:SimpleStorage",
						"label": "age",
						"offset": 2,
						"slot": "0",
						"type": "t_uint16"
					},
					{
						"astId": 11,
						"contract": "SimpleStorage.sol:SimpleStorage",
						"label": "isPay",
						"offset": 4,
						"slot": "0",
						"type": "t_bool"
					},
					{
						"astId": 14,
						"contract": "SimpleStorage.sol:SimpleStorage",
						"label": "name",
						"offset": 0,
						"slot": "1",
						"type": "t_string_storage"
					},
					{
						"astId": 17,
						"contract": "SimpleStorage.sol:SimpleStorage",
						"label": "hobbieNumbers",
						"offset": 0,
						"slot": "2",
						"type": "t_array(t_uint16)dyn_storage"
					},
					{
						"astId": 20,
						"contract": "SimpleStorage.sol:SimpleStorage",
						"label": "hashPassword",
						"offset": 0,
						"slot": "3",
						"type": "t_bytes32"
					},
					{
						"astId": 23,
						"contract": "SimpleStorage.sol:SimpleStorage",
						"label": "mywallet",
						"offset": 0,
						"slot": "4",
						"type": "t_address"
					},
					{
						"astId": 32,
						"contract": "SimpleStorage.sol:SimpleStorage",
						"label": "personOnMyFamily",
						"offset": 0,
						"slot": "5",
						"type": "t_array(t_struct(Person)28_storage)dyn_storage"
					},
					{
						"astId": 36,
						"contract": "SimpleStorage.sol:SimpleStorage",
						"label": "MyBlance",
						"offset": 0,
						"slot": "6",
						"type": "t_mapping(t_address,t_uint256)"
					}
				],
				"types": {
					"t_address": {
						"encoding": "inplace",
						"label": "address",
						"numberOfBytes": "20"
					},
					"t_array(t_struct(Person)28_storage)dyn_storage": {
						"base": "t_struct(Person)28_storage",
						"encoding": "dynamic_array",
						"label": "struct SimpleStorage.Person[]",
						"numberOfBytes": "32"
					},
					"t_array(t_uint16)dyn_storage": {
						"base": "t_uint16",
						"encoding": "dynamic_array",
						"label": "uint16[]",
						"numberOfBytes": "32"
					},
					"t_bool": {
						"encoding": "inplace",
						"label": "bool",
						"numberOfBytes": "1"
					},
					"t_bytes32": {
						"encoding": "inplace",
						"label": "bytes32",
						"numberOfBytes": "32"
					},
					"t_int16": {
						"encoding": "inplace",
						"label": "int16",
						"numberOfBytes": "2"
					},
					"t_mapping(t_address,t_uint256)": {
						"encoding": "mapping",
						"key": "t_address",
						"label": "mapping(address => uint256)",
						"numberOfBytes": "32",
						"value": "t_uint256"
					},
					"t_string_storage": {
						"encoding": "bytes",
						"label": "string",
						"numberOfBytes": "32"
					},
					"t_struct(Person)28_storage": {
						"encoding": "inplace",
						"label": "struct SimpleStorage.Person",
						"members": [
							{
								"astId": 25,
								"contract": "SimpleStorage.sol:SimpleStorage",
								"label": "name",
								"offset": 0,
								"slot": "0",
								"type": "t_string_storage"
							},
							{
								"astId": 27,
								"contract": "SimpleStorage.sol:SimpleStorage",
								"label": "age",
								"offset": 0,
								"slot": "1",
								"type": "t_uint256"
							}
						],
						"numberOfBytes": "64"
					},
					"t_uint16": {
						"encoding": "inplace",
						"label": "uint16",
						"numberOfBytes": "2"
					},
					"t_uint256": {
						"encoding": "inplace",
						"label": "uint256",
						"numberOfBytes": "32"
					}
				}
			},
			"userdoc": {
				"kind": "user",
				"methods": {},
				"version": 1
			}
		}
	}
}